{
  "contracts/libraries/StringsUtilsTester.sol": {
    "StringsUtilsTester": {
      "abi": [
        {
          "inputs": [
            {
              "internalType": "address",
              "name": "_addr",
              "type": "address"
            }
          ],
          "name": "addressToString",
          "outputs": [
            {
              "internalType": "string",
              "name": "",
              "type": "string"
            }
          ],
          "stateMutability": "pure",
          "type": "function"
        },
        {
          "inputs": [
            {
              "internalType": "bytes32",
              "name": "_bytes",
              "type": "bytes32"
            }
          ],
          "name": "byToString",
          "outputs": [
            {
              "internalType": "string",
              "name": "",
              "type": "string"
            }
          ],
          "stateMutability": "pure",
          "type": "function"
        },
        {
          "inputs": [
            {
              "internalType": "uint256",
              "name": "value",
              "type": "uint256"
            }
          ],
          "name": "uintToHexString",
          "outputs": [
            {
              "internalType": "string",
              "name": "",
              "type": "string"
            }
          ],
          "stateMutability": "pure",
          "type": "function"
        },
        {
          "inputs": [
            {
              "internalType": "uint256",
              "name": "value",
              "type": "uint256"
            },
            {
              "internalType": "uint256",
              "name": "length",
              "type": "uint256"
            }
          ],
          "name": "uintToHexString",
          "outputs": [
            {
              "internalType": "string",
              "name": "",
              "type": "string"
            }
          ],
          "stateMutability": "pure",
          "type": "function"
        },
        {
          "inputs": [
            {
              "internalType": "uint256",
              "name": "value",
              "type": "uint256"
            }
          ],
          "name": "uintToString",
          "outputs": [
            {
              "internalType": "string",
              "name": "",
              "type": "string"
            }
          ],
          "stateMutability": "pure",
          "type": "function"
        }
      ],
      "devdoc": {
        "kind": "dev",
        "methods": {
          "uintToHexString(uint256,uint256)": {
            "details": "Converts a `uint256` to its ASCII `string` hexadecimal representation with fixed length."
          },
          "uintToString(uint256)": {
            "details": "Converts a `uint256` to its ASCII `string` decimal representation."
          }
        },
        "version": 1
      },
      "evm": {
        "bytecode": {
          "linkReferences": {},
          "object": "608060405234801561001057600080fd5b50610634806100206000396000f3fe608060405234801561001057600080fd5b50600436106100675760003560e01c8063e455ad6211610050578063e455ad62146100a8578063e9395679146100bb578063eeba0248146100ce57600080fd5b8063232f06b71461006c5780635e57966d14610095575b600080fd5b61007f61007a366004610463565b6100e1565b60405161008c919061047c565b60405180910390f35b61007f6100a33660046104d1565b6100f2565b61007f6100b6366004610463565b6100fd565b61007f6100c9366004610463565b610108565b61007f6100dc366004610507565b610113565b60606100ec82610126565b92915050565b60606100ec82610185565b60606100ec826101a8565b60606100ec826101b5565b606061011f83836102b6565b9392505050565b6060816000036101505750506040805180820190915260048152630307830360e41b602082015290565b8160005b811561017357806101648161053f565b915050600882901c9150610154565b61017d84826102b6565b949350505050565b60606100ec8273ffffffffffffffffffffffffffffffffffffffff1660146102b6565b60606100ec8260206102b6565b6060816000036101dc5750506040805180820190915260018152600360fc1b602082015290565b8160005b811561020657806101f08161053f565b91506101ff9050600a8361056e565b91506101e0565b60008167ffffffffffffffff81111561022157610221610582565b6040519080825280601f01601f19166020018201604052801561024b576020820181803683370190505b5090505b841561017d57610260600183610598565b915061026d600a866105af565b6102789060306105c3565b60f81b81838151811061028d5761028d6105db565b60200101906001600160f81b031916908160001a9053506102af600a8661056e565b945061024f565b606060006102c58360026105f1565b6102d09060026105c3565b67ffffffffffffffff8111156102e8576102e8610582565b6040519080825280601f01601f191660200182016040528015610312576020820181803683370190505b509050600360fc1b8160008151811061032d5761032d6105db565b60200101906001600160f81b031916908160001a905350600f60fb1b8160018151811061035c5761035c6105db565b60200101906001600160f81b031916908160001a90535060006103808460026105f1565b61038b9060016105c3565b90505b6001811115610410577f303132333435363738396162636465660000000000000000000000000000000085600f16601081106103cc576103cc6105db565b1a60f81b8282815181106103e2576103e26105db565b60200101906001600160f81b031916908160001a90535060049490941c9361040981610610565b905061038e565b50831561011f5760405162461bcd60e51b815260206004820181905260248201527f537472696e67733a20686578206c656e67746820696e73756666696369656e74604482015260640160405180910390fd5b60006020828403121561047557600080fd5b5035919050565b600060208083528351808285015260005b818110156104a95785810183015185820160400152820161048d565b818111156104bb576000604083870101525b50601f01601f1916929092016040019392505050565b6000602082840312156104e357600080fd5b813573ffffffffffffffffffffffffffffffffffffffff8116811461011f57600080fd5b6000806040838503121561051a57600080fd5b50508035926020909101359150565b634e487b7160e01b600052601160045260246000fd5b60006001820161055157610551610529565b5060010190565b634e487b7160e01b600052601260045260246000fd5b60008261057d5761057d610558565b500490565b634e487b7160e01b600052604160045260246000fd5b6000828210156105aa576105aa610529565b500390565b6000826105be576105be610558565b500690565b600082198211156105d6576105d6610529565b500190565b634e487b7160e01b600052603260045260246000fd5b600081600019048311821515161561060b5761060b610529565b500290565b60008161061f5761061f610529565b50600019019056fea164736f6c634300080d000a",
          "opcodes": "PUSH1 0x80 PUSH1 0x40 MSTORE CALLVALUE DUP1 ISZERO PUSH2 0x10 JUMPI PUSH1 0x0 DUP1 REVERT JUMPDEST POP PUSH2 0x634 DUP1 PUSH2 0x20 PUSH1 0x0 CODECOPY PUSH1 0x0 RETURN INVALID PUSH1 0x80 PUSH1 0x40 MSTORE CALLVALUE DUP1 ISZERO PUSH2 0x10 JUMPI PUSH1 0x0 DUP1 REVERT JUMPDEST POP PUSH1 0x4 CALLDATASIZE LT PUSH2 0x67 JUMPI PUSH1 0x0 CALLDATALOAD PUSH1 0xE0 SHR DUP1 PUSH4 0xE455AD62 GT PUSH2 0x50 JUMPI DUP1 PUSH4 0xE455AD62 EQ PUSH2 0xA8 JUMPI DUP1 PUSH4 0xE9395679 EQ PUSH2 0xBB JUMPI DUP1 PUSH4 0xEEBA0248 EQ PUSH2 0xCE JUMPI PUSH1 0x0 DUP1 REVERT JUMPDEST DUP1 PUSH4 0x232F06B7 EQ PUSH2 0x6C JUMPI DUP1 PUSH4 0x5E57966D EQ PUSH2 0x95 JUMPI JUMPDEST PUSH1 0x0 DUP1 REVERT JUMPDEST PUSH2 0x7F PUSH2 0x7A CALLDATASIZE PUSH1 0x4 PUSH2 0x463 JUMP JUMPDEST PUSH2 0xE1 JUMP JUMPDEST PUSH1 0x40 MLOAD PUSH2 0x8C SWAP2 SWAP1 PUSH2 0x47C JUMP JUMPDEST PUSH1 0x40 MLOAD DUP1 SWAP2 SUB SWAP1 RETURN JUMPDEST PUSH2 0x7F PUSH2 0xA3 CALLDATASIZE PUSH1 0x4 PUSH2 0x4D1 JUMP JUMPDEST PUSH2 0xF2 JUMP JUMPDEST PUSH2 0x7F PUSH2 0xB6 CALLDATASIZE PUSH1 0x4 PUSH2 0x463 JUMP JUMPDEST PUSH2 0xFD JUMP JUMPDEST PUSH2 0x7F PUSH2 0xC9 CALLDATASIZE PUSH1 0x4 PUSH2 0x463 JUMP JUMPDEST PUSH2 0x108 JUMP JUMPDEST PUSH2 0x7F PUSH2 0xDC CALLDATASIZE PUSH1 0x4 PUSH2 0x507 JUMP JUMPDEST PUSH2 0x113 JUMP JUMPDEST PUSH1 0x60 PUSH2 0xEC DUP3 PUSH2 0x126 JUMP JUMPDEST SWAP3 SWAP2 POP POP JUMP JUMPDEST PUSH1 0x60 PUSH2 0xEC DUP3 PUSH2 0x185 JUMP JUMPDEST PUSH1 0x60 PUSH2 0xEC DUP3 PUSH2 0x1A8 JUMP JUMPDEST PUSH1 0x60 PUSH2 0xEC DUP3 PUSH2 0x1B5 JUMP JUMPDEST PUSH1 0x60 PUSH2 0x11F DUP4 DUP4 PUSH2 0x2B6 JUMP JUMPDEST SWAP4 SWAP3 POP POP POP JUMP JUMPDEST PUSH1 0x60 DUP2 PUSH1 0x0 SUB PUSH2 0x150 JUMPI POP POP PUSH1 0x40 DUP1 MLOAD DUP1 DUP3 ADD SWAP1 SWAP2 MSTORE PUSH1 0x4 DUP2 MSTORE PUSH4 0x3078303 PUSH1 0xE4 SHL PUSH1 0x20 DUP3 ADD MSTORE SWAP1 JUMP JUMPDEST DUP2 PUSH1 0x0 JUMPDEST DUP2 ISZERO PUSH2 0x173 JUMPI DUP1 PUSH2 0x164 DUP2 PUSH2 0x53F JUMP JUMPDEST SWAP2 POP POP PUSH1 0x8 DUP3 SWAP1 SHR SWAP2 POP PUSH2 0x154 JUMP JUMPDEST PUSH2 0x17D DUP5 DUP3 PUSH2 0x2B6 JUMP JUMPDEST SWAP5 SWAP4 POP POP POP POP JUMP JUMPDEST PUSH1 0x60 PUSH2 0xEC DUP3 PUSH20 0xFFFFFFFFFFFFFFFFFFFFFFFFFFFFFFFFFFFFFFFF AND PUSH1 0x14 PUSH2 0x2B6 JUMP JUMPDEST PUSH1 0x60 PUSH2 0xEC DUP3 PUSH1 0x20 PUSH2 0x2B6 JUMP JUMPDEST PUSH1 0x60 DUP2 PUSH1 0x0 SUB PUSH2 0x1DC JUMPI POP POP PUSH1 0x40 DUP1 MLOAD DUP1 DUP3 ADD SWAP1 SWAP2 MSTORE PUSH1 0x1 DUP2 MSTORE PUSH1 0x3 PUSH1 0xFC SHL PUSH1 0x20 DUP3 ADD MSTORE SWAP1 JUMP JUMPDEST DUP2 PUSH1 0x0 JUMPDEST DUP2 ISZERO PUSH2 0x206 JUMPI DUP1 PUSH2 0x1F0 DUP2 PUSH2 0x53F JUMP JUMPDEST SWAP2 POP PUSH2 0x1FF SWAP1 POP PUSH1 0xA DUP4 PUSH2 0x56E JUMP JUMPDEST SWAP2 POP PUSH2 0x1E0 JUMP JUMPDEST PUSH1 0x0 DUP2 PUSH8 0xFFFFFFFFFFFFFFFF DUP2 GT ISZERO PUSH2 0x221 JUMPI PUSH2 0x221 PUSH2 0x582 JUMP JUMPDEST PUSH1 0x40 MLOAD SWAP1 DUP1 DUP3 MSTORE DUP1 PUSH1 0x1F ADD PUSH1 0x1F NOT AND PUSH1 0x20 ADD DUP3 ADD PUSH1 0x40 MSTORE DUP1 ISZERO PUSH2 0x24B JUMPI PUSH1 0x20 DUP3 ADD DUP2 DUP1 CALLDATASIZE DUP4 CALLDATACOPY ADD SWAP1 POP JUMPDEST POP SWAP1 POP JUMPDEST DUP5 ISZERO PUSH2 0x17D JUMPI PUSH2 0x260 PUSH1 0x1 DUP4 PUSH2 0x598 JUMP JUMPDEST SWAP2 POP PUSH2 0x26D PUSH1 0xA DUP7 PUSH2 0x5AF JUMP JUMPDEST PUSH2 0x278 SWAP1 PUSH1 0x30 PUSH2 0x5C3 JUMP JUMPDEST PUSH1 0xF8 SHL DUP2 DUP4 DUP2 MLOAD DUP2 LT PUSH2 0x28D JUMPI PUSH2 0x28D PUSH2 0x5DB JUMP JUMPDEST PUSH1 0x20 ADD ADD SWAP1 PUSH1 0x1 PUSH1 0x1 PUSH1 0xF8 SHL SUB NOT AND SWAP1 DUP2 PUSH1 0x0 BYTE SWAP1 MSTORE8 POP PUSH2 0x2AF PUSH1 0xA DUP7 PUSH2 0x56E JUMP JUMPDEST SWAP5 POP PUSH2 0x24F JUMP JUMPDEST PUSH1 0x60 PUSH1 0x0 PUSH2 0x2C5 DUP4 PUSH1 0x2 PUSH2 0x5F1 JUMP JUMPDEST PUSH2 0x2D0 SWAP1 PUSH1 0x2 PUSH2 0x5C3 JUMP JUMPDEST PUSH8 0xFFFFFFFFFFFFFFFF DUP2 GT ISZERO PUSH2 0x2E8 JUMPI PUSH2 0x2E8 PUSH2 0x582 JUMP JUMPDEST PUSH1 0x40 MLOAD SWAP1 DUP1 DUP3 MSTORE DUP1 PUSH1 0x1F ADD PUSH1 0x1F NOT AND PUSH1 0x20 ADD DUP3 ADD PUSH1 0x40 MSTORE DUP1 ISZERO PUSH2 0x312 JUMPI PUSH1 0x20 DUP3 ADD DUP2 DUP1 CALLDATASIZE DUP4 CALLDATACOPY ADD SWAP1 POP JUMPDEST POP SWAP1 POP PUSH1 0x3 PUSH1 0xFC SHL DUP2 PUSH1 0x0 DUP2 MLOAD DUP2 LT PUSH2 0x32D JUMPI PUSH2 0x32D PUSH2 0x5DB JUMP JUMPDEST PUSH1 0x20 ADD ADD SWAP1 PUSH1 0x1 PUSH1 0x1 PUSH1 0xF8 SHL SUB NOT AND SWAP1 DUP2 PUSH1 0x0 BYTE SWAP1 MSTORE8 POP PUSH1 0xF PUSH1 0xFB SHL DUP2 PUSH1 0x1 DUP2 MLOAD DUP2 LT PUSH2 0x35C JUMPI PUSH2 0x35C PUSH2 0x5DB JUMP JUMPDEST PUSH1 0x20 ADD ADD SWAP1 PUSH1 0x1 PUSH1 0x1 PUSH1 0xF8 SHL SUB NOT AND SWAP1 DUP2 PUSH1 0x0 BYTE SWAP1 MSTORE8 POP PUSH1 0x0 PUSH2 0x380 DUP5 PUSH1 0x2 PUSH2 0x5F1 JUMP JUMPDEST PUSH2 0x38B SWAP1 PUSH1 0x1 PUSH2 0x5C3 JUMP JUMPDEST SWAP1 POP JUMPDEST PUSH1 0x1 DUP2 GT ISZERO PUSH2 0x410 JUMPI PUSH32 0x3031323334353637383961626364656600000000000000000000000000000000 DUP6 PUSH1 0xF AND PUSH1 0x10 DUP2 LT PUSH2 0x3CC JUMPI PUSH2 0x3CC PUSH2 0x5DB JUMP JUMPDEST BYTE PUSH1 0xF8 SHL DUP3 DUP3 DUP2 MLOAD DUP2 LT PUSH2 0x3E2 JUMPI PUSH2 0x3E2 PUSH2 0x5DB JUMP JUMPDEST PUSH1 0x20 ADD ADD SWAP1 PUSH1 0x1 PUSH1 0x1 PUSH1 0xF8 SHL SUB NOT AND SWAP1 DUP2 PUSH1 0x0 BYTE SWAP1 MSTORE8 POP PUSH1 0x4 SWAP5 SWAP1 SWAP5 SHR SWAP4 PUSH2 0x409 DUP2 PUSH2 0x610 JUMP JUMPDEST SWAP1 POP PUSH2 0x38E JUMP JUMPDEST POP DUP4 ISZERO PUSH2 0x11F JUMPI PUSH1 0x40 MLOAD PUSH3 0x461BCD PUSH1 0xE5 SHL DUP2 MSTORE PUSH1 0x20 PUSH1 0x4 DUP3 ADD DUP2 SWAP1 MSTORE PUSH1 0x24 DUP3 ADD MSTORE PUSH32 0x537472696E67733A20686578206C656E67746820696E73756666696369656E74 PUSH1 0x44 DUP3 ADD MSTORE PUSH1 0x64 ADD PUSH1 0x40 MLOAD DUP1 SWAP2 SUB SWAP1 REVERT JUMPDEST PUSH1 0x0 PUSH1 0x20 DUP3 DUP5 SUB SLT ISZERO PUSH2 0x475 JUMPI PUSH1 0x0 DUP1 REVERT JUMPDEST POP CALLDATALOAD SWAP2 SWAP1 POP JUMP JUMPDEST PUSH1 0x0 PUSH1 0x20 DUP1 DUP4 MSTORE DUP4 MLOAD DUP1 DUP3 DUP6 ADD MSTORE PUSH1 0x0 JUMPDEST DUP2 DUP2 LT ISZERO PUSH2 0x4A9 JUMPI DUP6 DUP2 ADD DUP4 ADD MLOAD DUP6 DUP3 ADD PUSH1 0x40 ADD MSTORE DUP3 ADD PUSH2 0x48D JUMP JUMPDEST DUP2 DUP2 GT ISZERO PUSH2 0x4BB JUMPI PUSH1 0x0 PUSH1 0x40 DUP4 DUP8 ADD ADD MSTORE JUMPDEST POP PUSH1 0x1F ADD PUSH1 0x1F NOT AND SWAP3 SWAP1 SWAP3 ADD PUSH1 0x40 ADD SWAP4 SWAP3 POP POP POP JUMP JUMPDEST PUSH1 0x0 PUSH1 0x20 DUP3 DUP5 SUB SLT ISZERO PUSH2 0x4E3 JUMPI PUSH1 0x0 DUP1 REVERT JUMPDEST DUP2 CALLDATALOAD PUSH20 0xFFFFFFFFFFFFFFFFFFFFFFFFFFFFFFFFFFFFFFFF DUP2 AND DUP2 EQ PUSH2 0x11F JUMPI PUSH1 0x0 DUP1 REVERT JUMPDEST PUSH1 0x0 DUP1 PUSH1 0x40 DUP4 DUP6 SUB SLT ISZERO PUSH2 0x51A JUMPI PUSH1 0x0 DUP1 REVERT JUMPDEST POP POP DUP1 CALLDATALOAD SWAP3 PUSH1 0x20 SWAP1 SWAP2 ADD CALLDATALOAD SWAP2 POP JUMP JUMPDEST PUSH4 0x4E487B71 PUSH1 0xE0 SHL PUSH1 0x0 MSTORE PUSH1 0x11 PUSH1 0x4 MSTORE PUSH1 0x24 PUSH1 0x0 REVERT JUMPDEST PUSH1 0x0 PUSH1 0x1 DUP3 ADD PUSH2 0x551 JUMPI PUSH2 0x551 PUSH2 0x529 JUMP JUMPDEST POP PUSH1 0x1 ADD SWAP1 JUMP JUMPDEST PUSH4 0x4E487B71 PUSH1 0xE0 SHL PUSH1 0x0 MSTORE PUSH1 0x12 PUSH1 0x4 MSTORE PUSH1 0x24 PUSH1 0x0 REVERT JUMPDEST PUSH1 0x0 DUP3 PUSH2 0x57D JUMPI PUSH2 0x57D PUSH2 0x558 JUMP JUMPDEST POP DIV SWAP1 JUMP JUMPDEST PUSH4 0x4E487B71 PUSH1 0xE0 SHL PUSH1 0x0 MSTORE PUSH1 0x41 PUSH1 0x4 MSTORE PUSH1 0x24 PUSH1 0x0 REVERT JUMPDEST PUSH1 0x0 DUP3 DUP3 LT ISZERO PUSH2 0x5AA JUMPI PUSH2 0x5AA PUSH2 0x529 JUMP JUMPDEST POP SUB SWAP1 JUMP JUMPDEST PUSH1 0x0 DUP3 PUSH2 0x5BE JUMPI PUSH2 0x5BE PUSH2 0x558 JUMP JUMPDEST POP MOD SWAP1 JUMP JUMPDEST PUSH1 0x0 DUP3 NOT DUP3 GT ISZERO PUSH2 0x5D6 JUMPI PUSH2 0x5D6 PUSH2 0x529 JUMP JUMPDEST POP ADD SWAP1 JUMP JUMPDEST PUSH4 0x4E487B71 PUSH1 0xE0 SHL PUSH1 0x0 MSTORE PUSH1 0x32 PUSH1 0x4 MSTORE PUSH1 0x24 PUSH1 0x0 REVERT JUMPDEST PUSH1 0x0 DUP2 PUSH1 0x0 NOT DIV DUP4 GT DUP3 ISZERO ISZERO AND ISZERO PUSH2 0x60B JUMPI PUSH2 0x60B PUSH2 0x529 JUMP JUMPDEST POP MUL SWAP1 JUMP JUMPDEST PUSH1 0x0 DUP2 PUSH2 0x61F JUMPI PUSH2 0x61F PUSH2 0x529 JUMP JUMPDEST POP PUSH1 0x0 NOT ADD SWAP1 JUMP INVALID LOG1 PUSH5 0x736F6C6343 STOP ADDMOD 0xD STOP EXP "
        },
        "gasEstimates": {
          "creation": {
            "codeDepositCost": "317600",
            "executionCost": "355",
            "totalCost": "317955"
          },
          "external": {
            "addressToString(address)": "infinite",
            "byToString(bytes32)": "infinite",
            "uintToHexString(uint256)": "infinite",
            "uintToHexString(uint256,uint256)": "infinite",
            "uintToString(uint256)": "infinite"
          }
        },
        "methodIdentifiers": {
          "addressToString(address)": "5e57966d",
          "byToString(bytes32)": "e455ad62",
          "uintToHexString(uint256)": "232f06b7",
          "uintToHexString(uint256,uint256)": "eeba0248",
          "uintToString(uint256)": "e9395679"
        }
      },
      "storageLayout": {
        "storage": [],
        "types": null
      },
      "userdoc": {
        "kind": "user",
        "methods": {},
        "version": 1
      }
    }
  }
}