{
  "contracts/libraries/SafePRBMathTester.sol": {
    "SafePRBMathTester": {
      "abi": [
        {
          "inputs": [
            {
              "internalType": "uint256",
              "name": "x",
              "type": "uint256"
            }
          ],
          "name": "PRBMathUD60x18__CeilOverflow",
          "type": "error"
        },
        {
          "inputs": [
            {
              "internalType": "uint256",
              "name": "x",
              "type": "uint256"
            }
          ],
          "name": "PRBMathUD60x18__Exp2InputTooBig",
          "type": "error"
        },
        {
          "inputs": [
            {
              "internalType": "uint256",
              "name": "x",
              "type": "uint256"
            }
          ],
          "name": "PRBMathUD60x18__ExpInputTooBig",
          "type": "error"
        },
        {
          "inputs": [
            {
              "internalType": "uint256",
              "name": "x",
              "type": "uint256"
            }
          ],
          "name": "PRBMathUD60x18__FromUintOverflow",
          "type": "error"
        },
        {
          "inputs": [
            {
              "internalType": "uint256",
              "name": "x",
              "type": "uint256"
            },
            {
              "internalType": "uint256",
              "name": "y",
              "type": "uint256"
            }
          ],
          "name": "PRBMathUD60x18__GmOverflow",
          "type": "error"
        },
        {
          "inputs": [
            {
              "internalType": "uint256",
              "name": "x",
              "type": "uint256"
            }
          ],
          "name": "PRBMathUD60x18__LogInputTooSmall",
          "type": "error"
        },
        {
          "inputs": [
            {
              "internalType": "uint256",
              "name": "x",
              "type": "uint256"
            }
          ],
          "name": "PRBMathUD60x18__SqrtOverflow",
          "type": "error"
        },
        {
          "inputs": [
            {
              "internalType": "uint256",
              "name": "prod1",
              "type": "uint256"
            }
          ],
          "name": "PRBMath__MulDivFixedPointOverflow",
          "type": "error"
        },
        {
          "inputs": [
            {
              "internalType": "uint256",
              "name": "prod1",
              "type": "uint256"
            },
            {
              "internalType": "uint256",
              "name": "denominator",
              "type": "uint256"
            }
          ],
          "name": "PRBMath__MulDivOverflow",
          "type": "error"
        },
        {
          "inputs": [
            {
              "internalType": "uint256",
              "name": "x",
              "type": "uint256"
            },
            {
              "internalType": "uint256",
              "name": "y",
              "type": "uint256"
            }
          ],
          "name": "avg",
          "outputs": [
            {
              "internalType": "uint256",
              "name": "result",
              "type": "uint256"
            }
          ],
          "stateMutability": "pure",
          "type": "function"
        },
        {
          "inputs": [
            {
              "internalType": "uint256",
              "name": "x",
              "type": "uint256"
            }
          ],
          "name": "ceil",
          "outputs": [
            {
              "internalType": "uint256",
              "name": "result",
              "type": "uint256"
            }
          ],
          "stateMutability": "pure",
          "type": "function"
        },
        {
          "inputs": [
            {
              "internalType": "uint256",
              "name": "x",
              "type": "uint256"
            },
            {
              "internalType": "uint256",
              "name": "y",
              "type": "uint256"
            }
          ],
          "name": "div",
          "outputs": [
            {
              "internalType": "uint256",
              "name": "result",
              "type": "uint256"
            }
          ],
          "stateMutability": "pure",
          "type": "function"
        },
        {
          "inputs": [],
          "name": "e",
          "outputs": [
            {
              "internalType": "uint256",
              "name": "result",
              "type": "uint256"
            }
          ],
          "stateMutability": "pure",
          "type": "function"
        },
        {
          "inputs": [
            {
              "internalType": "uint256",
              "name": "x",
              "type": "uint256"
            }
          ],
          "name": "exp",
          "outputs": [
            {
              "internalType": "uint256",
              "name": "result",
              "type": "uint256"
            }
          ],
          "stateMutability": "pure",
          "type": "function"
        },
        {
          "inputs": [
            {
              "internalType": "uint256",
              "name": "x",
              "type": "uint256"
            }
          ],
          "name": "exp2",
          "outputs": [
            {
              "internalType": "uint256",
              "name": "result",
              "type": "uint256"
            }
          ],
          "stateMutability": "pure",
          "type": "function"
        },
        {
          "inputs": [
            {
              "internalType": "uint256",
              "name": "x",
              "type": "uint256"
            }
          ],
          "name": "floor",
          "outputs": [
            {
              "internalType": "uint256",
              "name": "result",
              "type": "uint256"
            }
          ],
          "stateMutability": "pure",
          "type": "function"
        },
        {
          "inputs": [
            {
              "internalType": "uint256",
              "name": "x",
              "type": "uint256"
            }
          ],
          "name": "frac",
          "outputs": [
            {
              "internalType": "uint256",
              "name": "result",
              "type": "uint256"
            }
          ],
          "stateMutability": "pure",
          "type": "function"
        },
        {
          "inputs": [
            {
              "internalType": "uint256",
              "name": "x",
              "type": "uint256"
            }
          ],
          "name": "fromUint",
          "outputs": [
            {
              "internalType": "uint256",
              "name": "result",
              "type": "uint256"
            }
          ],
          "stateMutability": "pure",
          "type": "function"
        },
        {
          "inputs": [
            {
              "internalType": "uint256",
              "name": "x",
              "type": "uint256"
            },
            {
              "internalType": "uint256",
              "name": "y",
              "type": "uint256"
            }
          ],
          "name": "gm",
          "outputs": [
            {
              "internalType": "uint256",
              "name": "result",
              "type": "uint256"
            }
          ],
          "stateMutability": "pure",
          "type": "function"
        },
        {
          "inputs": [
            {
              "internalType": "uint256",
              "name": "x",
              "type": "uint256"
            }
          ],
          "name": "inv",
          "outputs": [
            {
              "internalType": "uint256",
              "name": "result",
              "type": "uint256"
            }
          ],
          "stateMutability": "pure",
          "type": "function"
        },
        {
          "inputs": [
            {
              "internalType": "uint256",
              "name": "x",
              "type": "uint256"
            }
          ],
          "name": "ln",
          "outputs": [
            {
              "internalType": "uint256",
              "name": "result",
              "type": "uint256"
            }
          ],
          "stateMutability": "pure",
          "type": "function"
        },
        {
          "inputs": [
            {
              "internalType": "uint256",
              "name": "x",
              "type": "uint256"
            }
          ],
          "name": "log10",
          "outputs": [
            {
              "internalType": "uint256",
              "name": "result",
              "type": "uint256"
            }
          ],
          "stateMutability": "pure",
          "type": "function"
        },
        {
          "inputs": [
            {
              "internalType": "uint256",
              "name": "x",
              "type": "uint256"
            }
          ],
          "name": "log2",
          "outputs": [
            {
              "internalType": "uint256",
              "name": "result",
              "type": "uint256"
            }
          ],
          "stateMutability": "pure",
          "type": "function"
        },
        {
          "inputs": [
            {
              "internalType": "uint256",
              "name": "x",
              "type": "uint256"
            },
            {
              "internalType": "uint256",
              "name": "y",
              "type": "uint256"
            }
          ],
          "name": "mul",
          "outputs": [
            {
              "internalType": "uint256",
              "name": "result",
              "type": "uint256"
            }
          ],
          "stateMutability": "pure",
          "type": "function"
        },
        {
          "inputs": [],
          "name": "pi",
          "outputs": [
            {
              "internalType": "uint256",
              "name": "result",
              "type": "uint256"
            }
          ],
          "stateMutability": "pure",
          "type": "function"
        },
        {
          "inputs": [
            {
              "internalType": "uint256",
              "name": "x",
              "type": "uint256"
            },
            {
              "internalType": "uint256",
              "name": "y",
              "type": "uint256"
            }
          ],
          "name": "pow",
          "outputs": [
            {
              "internalType": "uint256",
              "name": "result",
              "type": "uint256"
            }
          ],
          "stateMutability": "pure",
          "type": "function"
        },
        {
          "inputs": [
            {
              "internalType": "uint256",
              "name": "x",
              "type": "uint256"
            },
            {
              "internalType": "uint256",
              "name": "y",
              "type": "uint256"
            }
          ],
          "name": "powu",
          "outputs": [
            {
              "internalType": "uint256",
              "name": "result",
              "type": "uint256"
            }
          ],
          "stateMutability": "pure",
          "type": "function"
        },
        {
          "inputs": [],
          "name": "scale",
          "outputs": [
            {
              "internalType": "uint256",
              "name": "result",
              "type": "uint256"
            }
          ],
          "stateMutability": "pure",
          "type": "function"
        },
        {
          "inputs": [
            {
              "internalType": "uint256",
              "name": "x",
              "type": "uint256"
            }
          ],
          "name": "sqrt",
          "outputs": [
            {
              "internalType": "uint256",
              "name": "result",
              "type": "uint256"
            }
          ],
          "stateMutability": "pure",
          "type": "function"
        },
        {
          "inputs": [
            {
              "internalType": "uint256",
              "name": "x",
              "type": "uint256"
            }
          ],
          "name": "toUint",
          "outputs": [
            {
              "internalType": "uint256",
              "name": "result",
              "type": "uint256"
            }
          ],
          "stateMutability": "pure",
          "type": "function"
        }
      ],
      "devdoc": {
        "kind": "dev",
        "methods": {},
        "version": 1
      },
      "evm": {
        "bytecode": {
          "linkReferences": {},
          "object": "608060405234801561001057600080fd5b50611fdb806100206000396000f3fe608060405234801561001057600080fd5b50600436106101775760003560e01c80637d2b1efb116100d8578063c8a4ac9c1161008c578063ebdae5f911610066578063ebdae5f9146102df578063f51e181a146102f2578063ffae15ba1461030057600080fd5b8063c8a4ac9c146102a6578063db140068146102b9578063e3814b19146102cc57600080fd5b8063a391c15b116100bd578063a391c15b1461026d578063a75826ae14610280578063b581fbe31461029357600080fd5b80637d2b1efb1461024757806399a04f2f1461025a57600080fd5b80635456bf131161012f578063677342ce11610114578063677342ce1461020e578063728e8c7f146102215780637a142f2e1461023457600080fd5b80635456bf13146101e857806357f5c63c146101fb57600080fd5b80632e4c697f116101605780632e4c697f146101af57806340f0a21f146101c2578063504f5e56146101d557600080fd5b806324d4e90a1461017c5780632dd9868d146101a1575b600080fd5b61018f61018a366004611f57565b61030e565b60405190815260200160405180910390f35b672b992ddfa23249d661018f565b61018f6101bd366004611f70565b61031f565b61018f6101d0366004611f57565b610332565b61018f6101e3366004611f57565b61033d565b61018f6101f6366004611f57565b610355565b61018f610209366004611f57565b610360565b61018f61021c366004611f57565b61036b565b61018f61022f366004611f57565b610376565b61018f610242366004611f57565b610388565b61018f610255366004611f70565b610393565b61018f610268366004611f70565b61039f565b61018f61027b366004611f70565b6103ab565b61018f61028e366004611f57565b6103b7565b61018f6102a1366004611f57565b6103c2565b61018f6102b4366004611f70565b6103cd565b61018f6102c7366004611f70565b6103d9565b61018f6102da366004611f57565b6103f2565b61018f6102ed366004611f57565b6103fd565b670de0b6b3a764000061018f565b6725b946ebc0b3617361018f565b600061031982610408565b92915050565b600061032b838361043a565b9392505050565b60006103198261047c565b6000670de0b6b3a76400008206801515028203610319565b6000610319826104c7565b60006103198261057d565b60006103198261058e565b6000670de0b6b3a76400008206610319565b6000610319826105e0565b600061032b8383610600565b600061032b838361065e565b600061032b83836106b8565b6000610319826106cd565b600061031982610713565b600061032b8383610769565b600061032b8383600182811c82821c0192909116160190565b600061031982610775565b6000610319826107c2565b60006714057b7ef767814f670de0b6b3a7640000610425846104c7565b028161043357610433611f92565b0492915050565b60008260000361046257811561045157600061045b565b670de0b6b3a76400005b9050610319565b61032b610477610471856104c7565b84610769565b6106cd565b600067081ad01a501bffff198211156104b057604051630ecebb1160e31b8152600481018390526024015b60405180910390fd5b50670de0b6b3a76400008082068015159103020190565b6000670de0b6b3a76400008210156104f557604051633621413760e21b8152600481018390526024016104a7565b600061050a670de0b6b3a7640000840461145d565b670de0b6b3a764000081029250905082811c670de0b6b3a763ffff198101610533575050919050565b6706f05b59d3b200005b801561057557670de0b6b3a7640000828002049150671bc16d674ec80000821061056d579283019260019190911c905b60011c61053d565b505050919050565b6000670de0b6b3a764000082610433565b60007812725dd1d243aba0e75fe645cc4873f9e65afe688c928e1f218211156105cd57604051636155b67d60e01b8152600481018390526024016104a7565b610319670de0b6b3a76400008302611541565b6000816ec097ce7bc90715b34b9f10000000008161043357610433611f92565b60008260000361061257506000610319565b8282028284828161062557610625611f92565b041461064d5760405162c3efdf60e01b815260048101859052602481018490526044016104a7565b61065681611541565b949350505050565b600080826001161161067857670de0b6b3a764000061067a565b825b9050600182901c91505b81156103195761069483846116b5565b925060018216156106ac576106a981846116b5565b90505b600182901c9150610684565b600061032b83670de0b6b3a76400008461177b565b6000680a688906bd8b00000082106106fb57604051634a4f26f160e01b8152600481018390526024016104a7565b670de0b6b3a7640000604083901b0461032b81611847565b6000680736ea4425c11ac63182106107415760405163062bb40d60e31b8152600481018390526024016104a7565b6714057b7ef767814f820261032b670de0b6b3a76400006706f05b59d3b200008301046106cd565b600061032b83836116b5565b60007812725dd1d243aba0e75fe645cc4873f9e65afe688c928e1f218211156107b457604051633492ffd960e01b8152600481018390526024016104a7565b50670de0b6b3a76400000290565b6000670de0b6b3a76400008210156107f057604051633621413760e21b8152600481018390526024016104a7565b8160018114610f2357600a8114610f345760648114610f45576103e88114610f56576127108114610f6757620186a08114610f7857620f42408114610f8957629896808114610f9a576305f5e1008114610fab57633b9aca008114610fbc576402540be4008114610fcd5764174876e8008114610fde5764e8d4a510008114610fef576509184e72a000811461100057655af3107a400081146110115766038d7ea4c68000811461102257662386f26fc1000081146110335767016345785d8a0000811461104457670de0b6b3a7640000811461105557678ac7230489e80000811461105e5768056bc75e2d63100000811461106e57683635c9adc5dea00000811461107e5769021e19e0c9bab2400000811461108e5769152d02c7e14af6800000811461109e5769d3c21bcecceda100000081146110ae576a084595161401484a00000081146110be576a52b7d2dcc80cd2e400000081146110ce576b033b2e3c9fd0803ce800000081146110de576b204fce5e3e2502611000000081146110ee576c01431e0fae6d7217caa000000081146110fe576c0c9f2c9cd04674edea40000000811461110e576c7e37be2022c0914b2680000000811461111e576d04ee2d6d415b85acef8100000000811461112e576d314dc6448d9338c15b0a00000000811461113e576e01ed09bead87c0378d8e6400000000811461114e576e13426172c74d822b878fe800000000811461115e576ec097ce7bc90715b34b9f1000000000811461116e576f0785ee10d5da46d900f436a000000000811461117e576f4b3b4ca85a86c47a098a224000000000811461118f577002f050fe938943acc45f6556800000000081146111a057701d6329f1c35ca4bfabb9f561000000000081146111b157710125dfa371a19e6f7cb54395ca000000000081146111c257710b7abc627050305adf14a3d9e4000000000081146111d3577172cb5bd86321e38cb6ce6682e8000000000081146111e45772047bf19673df52e37f2410011d10000000000081146111f557722cd76fe086b93ce2f768a00b22a000000000008114611206577301c06a5ec5433c60ddaa16406f5a40000000000081146112175773118427b3b4a05bc8a8a4de84598680000000000081146112285773af298d050e4395d69670b12b7f410000000000008114611239577406d79f82328ea3da61e066ebb2f88a000000000000811461124a5774446c3b15f9926687d2c40534fdb564000000000000811461125b577502ac3a4edbbfb8014e3ba83411e915e8000000000000811461126c57751aba4714957d300d0e549208b31adb10000000000000811461127d5776010b46c6cdd6e3e0828f4db456ff0c8ea0000000000000811461128e57760a70c3c40a64e6c51999090b65f67d9240000000000000811461129f57766867a5a867f103b2fffa5a71fba0e7b68000000000000081146112b0577704140c78940f6a24fdffc78873d4490d210000000000000081146112c1577728c87cb5c89a2571ebfdcb54864ada834a0000000000000081146112d257780197d4df19d605767337e9f14d3eec8920e40000000000000081146112e357780fee50b7025c36a0802f236d04753d5b48e80000000000000081146112f457789f4f2726179a224501d762422c946590d9100000000000000081146113055779063917877cec0556b21269d695bdcbf7a87aa000000000000000811461131657793e3aeb4ae1383562f4b82261d969f7ac94ca40000000000000008114611327577a026e4d30eccc3215dd8f3157d27e23acbdcfe680000000000000008114611338577a184f03e93ff9f4daa797ed6e38ed64bf6a1f0100000000000000008114611349577af316271c7fc3908a8bef464e3945ef7a25360a0000000000000000811461135a577b097edd871cfda3a5697758bf0e3cbb5ac5741c640000000000000000811461136b577b5ef4a74721e864761ea977768e5f518bb6891be80000000000000000811461137c577c03b58e88c75313ec9d329eaaa18fb92f75215b17100000000000000000811461138d577c25179157c93ec73e23fa32aa4f9d3bda934d8ee6a00000000000000000811461139e577d0172ebad6ddc73c86d67c5faa71c245689c107950240000000000000000081146113af577d0e7d34c64a9c85d4460dbbca87196b61618a4bd21680000000000000000081146113c0577d90e40fbeea1d3a4abc8955e946fe31cdcf66f634e100000000000000000081146113d1577e05a8e89d75252446eb5d5d5b1cc5edf20a1a059e10ca00000000000000000081146113e2577e3899162693736ac531a5a58f1fbb4b746504382ca7e400000000000000000081146113f3577f0235fadd81c2822bb3f07877973d50f28bf22a31be8ee80000000000000000008114611404577f161bcca7119915b50764b4abe86529797775a5f17195100000000000000000008114611415577fdd15fe86affad91249ef0eb713f39ebeaa987b6e6fd2a00000000000000000008114611426576000199150611433565b67f9ccd8a1c507ffff199150611433565b67ebec21ee1da3ffff199150611433565b67de0b6b3a763fffff199150611433565b67d02ab486cedbffff199150611433565b67c249fdd32777ffff199150611433565b67b469471f8013ffff199150611433565b67a688906bd8afffff199150611433565b6798a7d9b8314bffff199150611433565b678ac7230489e7ffff199150611433565b677ce66c50e283ffff199150611433565b676f05b59d3b1fffff199150611433565b676124fee993bbffff199150611433565b6753444835ec57ffff199150611433565b674563918244f3ffff199150611433565b673782dace9d8fffff199150611433565b6729a2241af62bffff199150611433565b671bc16d674ec7ffff199150611433565b670de0b6b3a763ffff199150611433565b60009150611433565b670de0b6b3a76400009150611433565b671bc16d674ec800009150611433565b6729a2241af62c00009150611433565b673782dace9d9000009150611433565b674563918244f400009150611433565b6753444835ec5800009150611433565b676124fee993bc00009150611433565b676f05b59d3b2000009150611433565b677ce66c50e28400009150611433565b678ac7230489e800009150611433565b6798a7d9b8314c00009150611433565b67a688906bd8b000009150611433565b67b469471f801400009150611433565b67c249fdd3277800009150611433565b67d02ab486cedc00009150611433565b67de0b6b3a764000009150611433565b67ebec21ee1da400009150611433565b67f9ccd8a1c50800009150611433565b680107ad8f556c6c00009150611433565b6801158e460913d000009150611433565b6801236efcbcbb3400009150611433565b6801314fb370629800009150611433565b68013f306a2409fc00009150611433565b68014d1120d7b16000009150611433565b68015af1d78b58c400009150611433565b680168d28e3f002800009150611433565b680176b344f2a78c00009150611433565b68018493fba64ef000009150611433565b68019274b259f65400009150611433565b6801a055690d9db800009150611433565b6801ae361fc1451c00009150611433565b6801bc16d674ec8000009150611433565b6801c9f78d2893e400009150611433565b6801d7d843dc3b4800009150611433565b6801e5b8fa8fe2ac00009150611433565b6801f399b1438a1000009150611433565b6802017a67f7317400009150611433565b68020f5b1eaad8d800009150611433565b68021d3bd55e803c00009150611433565b68022b1c8c1227a000009150611433565b680238fd42c5cf0400009150611433565b680246ddf979766800009150611433565b680254beb02d1dcc00009150611433565b6802629f66e0c53000009150611433565b680270801d946c9400009150611433565b68027e60d44813f800009150611433565b68028c418afbbb5c00009150611433565b68029a2241af62c000009150611433565b6802a802f8630a2400009150611433565b6802b5e3af16b18800009150611433565b6802c3c465ca58ec00009150611433565b6802d1a51c7e005000009150611433565b6802df85d331a7b400009150611433565b6802ed6689e54f1800009150611433565b6802fb474098f67c00009150611433565b68030927f74c9de000009150611433565b68031708ae00454400009150611433565b680324e964b3eca800009150611433565b680332ca1b67940c000091505b50600019810361145857672e19dc008126bf2b670de0b6b3a7640000610425846104c7565b919050565b6000600160801b821061147d57608091821c9161147a9082611fa8565b90505b6801000000000000000082106114a057604091821c9161149d9082611fa8565b90505b64010000000082106114bf57602091821c916114bc9082611fa8565b90505b6201000082106114dc57601091821c916114d99082611fa8565b90505b61010082106114f857600891821c916114f59082611fa8565b90505b6010821061151357600491821c916115109082611fa8565b90505b6004821061152e57600291821c9161152b9082611fa8565b90505b6002821061145857610319600182611fa8565b60008160000361155357506000919050565b50600181600160801b811061156d5760409190911b9060801c5b6801000000000000000081106115885760209190911b9060401c5b640100000000811061159f5760109190911b9060201c5b6201000081106115b45760089190911b9060101c5b61010081106115c85760049190911b9060081c5b601081106115db5760029190911b9060041c5b600881106115eb57600182901b91505b60018284816115fc576115fc611f92565b048301901c9150600182848161161457611614611f92565b048301901c9150600182848161162c5761162c611f92565b048301901c9150600182848161164457611644611f92565b048301901c9150600182848161165c5761165c611f92565b048301901c9150600182848161167457611674611f92565b048301901c9150600182848161168c5761168c611f92565b048301901c915060008284816116a4576116a4611f92565b0490508083101561032b5782610656565b60008080600019848609848602925082811083820303915050670de0b6b3a764000081106116f95760405163698d9a0160e11b8152600481018290526024016104a7565b600080670de0b6b3a764000086880991506706f05b59d3b1ffff82119050826000036117375780670de0b6b3a7640000850401945050505050610319565b620400008285030493909111909103600160ee1b02919091177faccb18165bd6fe31ae1cf318dc5b51eee0e1ba569b88cd74c1773b91fac106690201905092915050565b60008080600019858709858702925082811083820303915050806000036117b5578382816117ab576117ab611f92565b049250505061032b565b8381106117df57604051631dcf306360e21b815260048101829052602481018590526044016104a7565b600084868809600260036001881981018916988990049182028318808302840302808302840302808302840302808302840302808302840302918202909203026000889003889004909101858311909403939093029303949094049190911702949350505050565b7780000000000000000000000000000000000000000000000067800000000000000082161561187f5768016a09e667f3bcc9090260401c5b67400000000000000082161561189e576801306fe0a31b7152df0260401c5b6720000000000000008216156118bd576801172b83c7d517adce0260401c5b6710000000000000008216156118dc5768010b5586cf9890f62a0260401c5b6708000000000000008216156118fb576801059b0d31585743ae0260401c5b67040000000000000082161561191a57680102c9a3e778060ee70260401c5b6702000000000000008216156119395768010163da9fb33356d80260401c5b67010000000000000082161561195857680100b1afa5abcbed610260401c5b66800000000000008216156119765768010058c86da1c09ea20260401c5b6640000000000000821615611994576801002c605e2e8cec500260401c5b66200000000000008216156119b257680100162f3904051fa10260401c5b66100000000000008216156119d0576801000b175effdc76ba0260401c5b66080000000000008216156119ee57680100058ba01fb9f96d0260401c5b6604000000000000821615611a0c5768010002c5cc37da94920260401c5b6602000000000000821615611a2a576801000162e525ee05470260401c5b6601000000000000821615611a485768010000b17255775c040260401c5b65800000000000821615611a65576801000058b91b5bc9ae0260401c5b65400000000000821615611a8257680100002c5c89d5ec6d0260401c5b65200000000000821615611a9f5768010000162e43f4f8310260401c5b65100000000000821615611abc57680100000b1721bcfc9a0260401c5b65080000000000821615611ad95768010000058b90cf1e6e0260401c5b65040000000000821615611af6576801000002c5c863b73f0260401c5b65020000000000821615611b1357680100000162e430e5a20260401c5b65010000000000821615611b30576801000000b1721835510260401c5b648000000000821615611b4c57680100000058b90c0b490260401c5b644000000000821615611b685768010000002c5c8601cc0260401c5b642000000000821615611b84576801000000162e42fff00260401c5b641000000000821615611ba05768010000000b17217fbb0260401c5b640800000000821615611bbc576801000000058b90bfce0260401c5b640400000000821615611bd857680100000002c5c85fe30260401c5b640200000000821615611bf45768010000000162e42ff10260401c5b640100000000821615611c1057680100000000b17217f80260401c5b6380000000821615611c2b5768010000000058b90bfc0260401c5b6340000000821615611c46576801000000002c5c85fe0260401c5b6320000000821615611c6157680100000000162e42ff0260401c5b6310000000821615611c7c576801000000000b17217f0260401c5b6308000000821615611c9757680100000000058b90c00260401c5b6304000000821615611cb25768010000000002c5c8600260401c5b6302000000821615611ccd576801000000000162e4300260401c5b6301000000821615611ce85768010000000000b172180260401c5b62800000821615611d02576801000000000058b90c0260401c5b62400000821615611d1c57680100000000002c5c860260401c5b62200000821615611d365768010000000000162e430260401c5b62100000821615611d5057680100000000000b17210260401c5b62080000821615611d6a5768010000000000058b910260401c5b62040000821615611d84576801000000000002c5c80260401c5b62020000821615611d9e57680100000000000162e40260401c5b62010000821615611db8576801000000000000b1720260401c5b618000821615611dd157680100000000000058b90260401c5b614000821615611dea5768010000000000002c5d0260401c5b612000821615611e03576801000000000000162e0260401c5b611000821615611e1c5768010000000000000b170260401c5b610800821615611e35576801000000000000058c0260401c5b610400821615611e4e57680100000000000002c60260401c5b610200821615611e6757680100000000000001630260401c5b610100821615611e8057680100000000000000b10260401c5b6080821615611e9857680100000000000000590260401c5b6040821615611eb0576801000000000000002c0260401c5b6020821615611ec857680100000000000000160260401c5b6010821615611ee0576801000000000000000b0260401c5b6008821615611ef857680100000000000000060260401c5b6004821615611f1057680100000000000000030260401c5b6002821615611f2857680100000000000000010260401c5b6001821615611f4057680100000000000000010260401c5b670de0b6b3a76400000260409190911c60bf031c90565b600060208284031215611f6957600080fd5b5035919050565b60008060408385031215611f8357600080fd5b50508035926020909101359150565b634e487b7160e01b600052601260045260246000fd5b60008219821115611fc957634e487b7160e01b600052601160045260246000fd5b50019056fea164736f6c634300080d000a",
          "opcodes": "PUSH1 0x80 PUSH1 0x40 MSTORE CALLVALUE DUP1 ISZERO PUSH2 0x10 JUMPI PUSH1 0x0 DUP1 REVERT JUMPDEST POP PUSH2 0x1FDB DUP1 PUSH2 0x20 PUSH1 0x0 CODECOPY PUSH1 0x0 RETURN INVALID PUSH1 0x80 PUSH1 0x40 MSTORE CALLVALUE DUP1 ISZERO PUSH2 0x10 JUMPI PUSH1 0x0 DUP1 REVERT JUMPDEST POP PUSH1 0x4 CALLDATASIZE LT PUSH2 0x177 JUMPI PUSH1 0x0 CALLDATALOAD PUSH1 0xE0 SHR DUP1 PUSH4 0x7D2B1EFB GT PUSH2 0xD8 JUMPI DUP1 PUSH4 0xC8A4AC9C GT PUSH2 0x8C JUMPI DUP1 PUSH4 0xEBDAE5F9 GT PUSH2 0x66 JUMPI DUP1 PUSH4 0xEBDAE5F9 EQ PUSH2 0x2DF JUMPI DUP1 PUSH4 0xF51E181A EQ PUSH2 0x2F2 JUMPI DUP1 PUSH4 0xFFAE15BA EQ PUSH2 0x300 JUMPI PUSH1 0x0 DUP1 REVERT JUMPDEST DUP1 PUSH4 0xC8A4AC9C EQ PUSH2 0x2A6 JUMPI DUP1 PUSH4 0xDB140068 EQ PUSH2 0x2B9 JUMPI DUP1 PUSH4 0xE3814B19 EQ PUSH2 0x2CC JUMPI PUSH1 0x0 DUP1 REVERT JUMPDEST DUP1 PUSH4 0xA391C15B GT PUSH2 0xBD JUMPI DUP1 PUSH4 0xA391C15B EQ PUSH2 0x26D JUMPI DUP1 PUSH4 0xA75826AE EQ PUSH2 0x280 JUMPI DUP1 PUSH4 0xB581FBE3 EQ PUSH2 0x293 JUMPI PUSH1 0x0 DUP1 REVERT JUMPDEST DUP1 PUSH4 0x7D2B1EFB EQ PUSH2 0x247 JUMPI DUP1 PUSH4 0x99A04F2F EQ PUSH2 0x25A JUMPI PUSH1 0x0 DUP1 REVERT JUMPDEST DUP1 PUSH4 0x5456BF13 GT PUSH2 0x12F JUMPI DUP1 PUSH4 0x677342CE GT PUSH2 0x114 JUMPI DUP1 PUSH4 0x677342CE EQ PUSH2 0x20E JUMPI DUP1 PUSH4 0x728E8C7F EQ PUSH2 0x221 JUMPI DUP1 PUSH4 0x7A142F2E EQ PUSH2 0x234 JUMPI PUSH1 0x0 DUP1 REVERT JUMPDEST DUP1 PUSH4 0x5456BF13 EQ PUSH2 0x1E8 JUMPI DUP1 PUSH4 0x57F5C63C EQ PUSH2 0x1FB JUMPI PUSH1 0x0 DUP1 REVERT JUMPDEST DUP1 PUSH4 0x2E4C697F GT PUSH2 0x160 JUMPI DUP1 PUSH4 0x2E4C697F EQ PUSH2 0x1AF JUMPI DUP1 PUSH4 0x40F0A21F EQ PUSH2 0x1C2 JUMPI DUP1 PUSH4 0x504F5E56 EQ PUSH2 0x1D5 JUMPI PUSH1 0x0 DUP1 REVERT JUMPDEST DUP1 PUSH4 0x24D4E90A EQ PUSH2 0x17C JUMPI DUP1 PUSH4 0x2DD9868D EQ PUSH2 0x1A1 JUMPI JUMPDEST PUSH1 0x0 DUP1 REVERT JUMPDEST PUSH2 0x18F PUSH2 0x18A CALLDATASIZE PUSH1 0x4 PUSH2 0x1F57 JUMP JUMPDEST PUSH2 0x30E JUMP JUMPDEST PUSH1 0x40 MLOAD SWAP1 DUP2 MSTORE PUSH1 0x20 ADD PUSH1 0x40 MLOAD DUP1 SWAP2 SUB SWAP1 RETURN JUMPDEST PUSH8 0x2B992DDFA23249D6 PUSH2 0x18F JUMP JUMPDEST PUSH2 0x18F PUSH2 0x1BD CALLDATASIZE PUSH1 0x4 PUSH2 0x1F70 JUMP JUMPDEST PUSH2 0x31F JUMP JUMPDEST PUSH2 0x18F PUSH2 0x1D0 CALLDATASIZE PUSH1 0x4 PUSH2 0x1F57 JUMP JUMPDEST PUSH2 0x332 JUMP JUMPDEST PUSH2 0x18F PUSH2 0x1E3 CALLDATASIZE PUSH1 0x4 PUSH2 0x1F57 JUMP JUMPDEST PUSH2 0x33D JUMP JUMPDEST PUSH2 0x18F PUSH2 0x1F6 CALLDATASIZE PUSH1 0x4 PUSH2 0x1F57 JUMP JUMPDEST PUSH2 0x355 JUMP JUMPDEST PUSH2 0x18F PUSH2 0x209 CALLDATASIZE PUSH1 0x4 PUSH2 0x1F57 JUMP JUMPDEST PUSH2 0x360 JUMP JUMPDEST PUSH2 0x18F PUSH2 0x21C CALLDATASIZE PUSH1 0x4 PUSH2 0x1F57 JUMP JUMPDEST PUSH2 0x36B JUMP JUMPDEST PUSH2 0x18F PUSH2 0x22F CALLDATASIZE PUSH1 0x4 PUSH2 0x1F57 JUMP JUMPDEST PUSH2 0x376 JUMP JUMPDEST PUSH2 0x18F PUSH2 0x242 CALLDATASIZE PUSH1 0x4 PUSH2 0x1F57 JUMP JUMPDEST PUSH2 0x388 JUMP JUMPDEST PUSH2 0x18F PUSH2 0x255 CALLDATASIZE PUSH1 0x4 PUSH2 0x1F70 JUMP JUMPDEST PUSH2 0x393 JUMP JUMPDEST PUSH2 0x18F PUSH2 0x268 CALLDATASIZE PUSH1 0x4 PUSH2 0x1F70 JUMP JUMPDEST PUSH2 0x39F JUMP JUMPDEST PUSH2 0x18F PUSH2 0x27B CALLDATASIZE PUSH1 0x4 PUSH2 0x1F70 JUMP JUMPDEST PUSH2 0x3AB JUMP JUMPDEST PUSH2 0x18F PUSH2 0x28E CALLDATASIZE PUSH1 0x4 PUSH2 0x1F57 JUMP JUMPDEST PUSH2 0x3B7 JUMP JUMPDEST PUSH2 0x18F PUSH2 0x2A1 CALLDATASIZE PUSH1 0x4 PUSH2 0x1F57 JUMP JUMPDEST PUSH2 0x3C2 JUMP JUMPDEST PUSH2 0x18F PUSH2 0x2B4 CALLDATASIZE PUSH1 0x4 PUSH2 0x1F70 JUMP JUMPDEST PUSH2 0x3CD JUMP JUMPDEST PUSH2 0x18F PUSH2 0x2C7 CALLDATASIZE PUSH1 0x4 PUSH2 0x1F70 JUMP JUMPDEST PUSH2 0x3D9 JUMP JUMPDEST PUSH2 0x18F PUSH2 0x2DA CALLDATASIZE PUSH1 0x4 PUSH2 0x1F57 JUMP JUMPDEST PUSH2 0x3F2 JUMP JUMPDEST PUSH2 0x18F PUSH2 0x2ED CALLDATASIZE PUSH1 0x4 PUSH2 0x1F57 JUMP JUMPDEST PUSH2 0x3FD JUMP JUMPDEST PUSH8 0xDE0B6B3A7640000 PUSH2 0x18F JUMP JUMPDEST PUSH8 0x25B946EBC0B36173 PUSH2 0x18F JUMP JUMPDEST PUSH1 0x0 PUSH2 0x319 DUP3 PUSH2 0x408 JUMP JUMPDEST SWAP3 SWAP2 POP POP JUMP JUMPDEST PUSH1 0x0 PUSH2 0x32B DUP4 DUP4 PUSH2 0x43A JUMP JUMPDEST SWAP4 SWAP3 POP POP POP JUMP JUMPDEST PUSH1 0x0 PUSH2 0x319 DUP3 PUSH2 0x47C JUMP JUMPDEST PUSH1 0x0 PUSH8 0xDE0B6B3A7640000 DUP3 MOD DUP1 ISZERO ISZERO MUL DUP3 SUB PUSH2 0x319 JUMP JUMPDEST PUSH1 0x0 PUSH2 0x319 DUP3 PUSH2 0x4C7 JUMP JUMPDEST PUSH1 0x0 PUSH2 0x319 DUP3 PUSH2 0x57D JUMP JUMPDEST PUSH1 0x0 PUSH2 0x319 DUP3 PUSH2 0x58E JUMP JUMPDEST PUSH1 0x0 PUSH8 0xDE0B6B3A7640000 DUP3 MOD PUSH2 0x319 JUMP JUMPDEST PUSH1 0x0 PUSH2 0x319 DUP3 PUSH2 0x5E0 JUMP JUMPDEST PUSH1 0x0 PUSH2 0x32B DUP4 DUP4 PUSH2 0x600 JUMP JUMPDEST PUSH1 0x0 PUSH2 0x32B DUP4 DUP4 PUSH2 0x65E JUMP JUMPDEST PUSH1 0x0 PUSH2 0x32B DUP4 DUP4 PUSH2 0x6B8 JUMP JUMPDEST PUSH1 0x0 PUSH2 0x319 DUP3 PUSH2 0x6CD JUMP JUMPDEST PUSH1 0x0 PUSH2 0x319 DUP3 PUSH2 0x713 JUMP JUMPDEST PUSH1 0x0 PUSH2 0x32B DUP4 DUP4 PUSH2 0x769 JUMP JUMPDEST PUSH1 0x0 PUSH2 0x32B DUP4 DUP4 PUSH1 0x1 DUP3 DUP2 SHR DUP3 DUP3 SHR ADD SWAP3 SWAP1 SWAP2 AND AND ADD SWAP1 JUMP JUMPDEST PUSH1 0x0 PUSH2 0x319 DUP3 PUSH2 0x775 JUMP JUMPDEST PUSH1 0x0 PUSH2 0x319 DUP3 PUSH2 0x7C2 JUMP JUMPDEST PUSH1 0x0 PUSH8 0x14057B7EF767814F PUSH8 0xDE0B6B3A7640000 PUSH2 0x425 DUP5 PUSH2 0x4C7 JUMP JUMPDEST MUL DUP2 PUSH2 0x433 JUMPI PUSH2 0x433 PUSH2 0x1F92 JUMP JUMPDEST DIV SWAP3 SWAP2 POP POP JUMP JUMPDEST PUSH1 0x0 DUP3 PUSH1 0x0 SUB PUSH2 0x462 JUMPI DUP2 ISZERO PUSH2 0x451 JUMPI PUSH1 0x0 PUSH2 0x45B JUMP JUMPDEST PUSH8 0xDE0B6B3A7640000 JUMPDEST SWAP1 POP PUSH2 0x319 JUMP JUMPDEST PUSH2 0x32B PUSH2 0x477 PUSH2 0x471 DUP6 PUSH2 0x4C7 JUMP JUMPDEST DUP5 PUSH2 0x769 JUMP JUMPDEST PUSH2 0x6CD JUMP JUMPDEST PUSH1 0x0 PUSH8 0x81AD01A501BFFFF NOT DUP3 GT ISZERO PUSH2 0x4B0 JUMPI PUSH1 0x40 MLOAD PUSH4 0xECEBB11 PUSH1 0xE3 SHL DUP2 MSTORE PUSH1 0x4 DUP2 ADD DUP4 SWAP1 MSTORE PUSH1 0x24 ADD JUMPDEST PUSH1 0x40 MLOAD DUP1 SWAP2 SUB SWAP1 REVERT JUMPDEST POP PUSH8 0xDE0B6B3A7640000 DUP1 DUP3 MOD DUP1 ISZERO ISZERO SWAP2 SUB MUL ADD SWAP1 JUMP JUMPDEST PUSH1 0x0 PUSH8 0xDE0B6B3A7640000 DUP3 LT ISZERO PUSH2 0x4F5 JUMPI PUSH1 0x40 MLOAD PUSH4 0x36214137 PUSH1 0xE2 SHL DUP2 MSTORE PUSH1 0x4 DUP2 ADD DUP4 SWAP1 MSTORE PUSH1 0x24 ADD PUSH2 0x4A7 JUMP JUMPDEST PUSH1 0x0 PUSH2 0x50A PUSH8 0xDE0B6B3A7640000 DUP5 DIV PUSH2 0x145D JUMP JUMPDEST PUSH8 0xDE0B6B3A7640000 DUP2 MUL SWAP3 POP SWAP1 POP DUP3 DUP2 SHR PUSH8 0xDE0B6B3A763FFFF NOT DUP2 ADD PUSH2 0x533 JUMPI POP POP SWAP2 SWAP1 POP JUMP JUMPDEST PUSH8 0x6F05B59D3B20000 JUMPDEST DUP1 ISZERO PUSH2 0x575 JUMPI PUSH8 0xDE0B6B3A7640000 DUP3 DUP1 MUL DIV SWAP2 POP PUSH8 0x1BC16D674EC80000 DUP3 LT PUSH2 0x56D JUMPI SWAP3 DUP4 ADD SWAP3 PUSH1 0x1 SWAP2 SWAP1 SWAP2 SHR SWAP1 JUMPDEST PUSH1 0x1 SHR PUSH2 0x53D JUMP JUMPDEST POP POP POP SWAP2 SWAP1 POP JUMP JUMPDEST PUSH1 0x0 PUSH8 0xDE0B6B3A7640000 DUP3 PUSH2 0x433 JUMP JUMPDEST PUSH1 0x0 PUSH25 0x12725DD1D243ABA0E75FE645CC4873F9E65AFE688C928E1F21 DUP3 GT ISZERO PUSH2 0x5CD JUMPI PUSH1 0x40 MLOAD PUSH4 0x6155B67D PUSH1 0xE0 SHL DUP2 MSTORE PUSH1 0x4 DUP2 ADD DUP4 SWAP1 MSTORE PUSH1 0x24 ADD PUSH2 0x4A7 JUMP JUMPDEST PUSH2 0x319 PUSH8 0xDE0B6B3A7640000 DUP4 MUL PUSH2 0x1541 JUMP JUMPDEST PUSH1 0x0 DUP2 PUSH15 0xC097CE7BC90715B34B9F1000000000 DUP2 PUSH2 0x433 JUMPI PUSH2 0x433 PUSH2 0x1F92 JUMP JUMPDEST PUSH1 0x0 DUP3 PUSH1 0x0 SUB PUSH2 0x612 JUMPI POP PUSH1 0x0 PUSH2 0x319 JUMP JUMPDEST DUP3 DUP3 MUL DUP3 DUP5 DUP3 DUP2 PUSH2 0x625 JUMPI PUSH2 0x625 PUSH2 0x1F92 JUMP JUMPDEST DIV EQ PUSH2 0x64D JUMPI PUSH1 0x40 MLOAD PUSH3 0xC3EFDF PUSH1 0xE0 SHL DUP2 MSTORE PUSH1 0x4 DUP2 ADD DUP6 SWAP1 MSTORE PUSH1 0x24 DUP2 ADD DUP5 SWAP1 MSTORE PUSH1 0x44 ADD PUSH2 0x4A7 JUMP JUMPDEST PUSH2 0x656 DUP2 PUSH2 0x1541 JUMP JUMPDEST SWAP5 SWAP4 POP POP POP POP JUMP JUMPDEST PUSH1 0x0 DUP1 DUP3 PUSH1 0x1 AND GT PUSH2 0x678 JUMPI PUSH8 0xDE0B6B3A7640000 PUSH2 0x67A JUMP JUMPDEST DUP3 JUMPDEST SWAP1 POP PUSH1 0x1 DUP3 SWAP1 SHR SWAP2 POP JUMPDEST DUP2 ISZERO PUSH2 0x319 JUMPI PUSH2 0x694 DUP4 DUP5 PUSH2 0x16B5 JUMP JUMPDEST SWAP3 POP PUSH1 0x1 DUP3 AND ISZERO PUSH2 0x6AC JUMPI PUSH2 0x6A9 DUP2 DUP5 PUSH2 0x16B5 JUMP JUMPDEST SWAP1 POP JUMPDEST PUSH1 0x1 DUP3 SWAP1 SHR SWAP2 POP PUSH2 0x684 JUMP JUMPDEST PUSH1 0x0 PUSH2 0x32B DUP4 PUSH8 0xDE0B6B3A7640000 DUP5 PUSH2 0x177B JUMP JUMPDEST PUSH1 0x0 PUSH9 0xA688906BD8B000000 DUP3 LT PUSH2 0x6FB JUMPI PUSH1 0x40 MLOAD PUSH4 0x4A4F26F1 PUSH1 0xE0 SHL DUP2 MSTORE PUSH1 0x4 DUP2 ADD DUP4 SWAP1 MSTORE PUSH1 0x24 ADD PUSH2 0x4A7 JUMP JUMPDEST PUSH8 0xDE0B6B3A7640000 PUSH1 0x40 DUP4 SWAP1 SHL DIV PUSH2 0x32B DUP2 PUSH2 0x1847 JUMP JUMPDEST PUSH1 0x0 PUSH9 0x736EA4425C11AC631 DUP3 LT PUSH2 0x741 JUMPI PUSH1 0x40 MLOAD PUSH4 0x62BB40D PUSH1 0xE3 SHL DUP2 MSTORE PUSH1 0x4 DUP2 ADD DUP4 SWAP1 MSTORE PUSH1 0x24 ADD PUSH2 0x4A7 JUMP JUMPDEST PUSH8 0x14057B7EF767814F DUP3 MUL PUSH2 0x32B PUSH8 0xDE0B6B3A7640000 PUSH8 0x6F05B59D3B20000 DUP4 ADD DIV PUSH2 0x6CD JUMP JUMPDEST PUSH1 0x0 PUSH2 0x32B DUP4 DUP4 PUSH2 0x16B5 JUMP JUMPDEST PUSH1 0x0 PUSH25 0x12725DD1D243ABA0E75FE645CC4873F9E65AFE688C928E1F21 DUP3 GT ISZERO PUSH2 0x7B4 JUMPI PUSH1 0x40 MLOAD PUSH4 0x3492FFD9 PUSH1 0xE0 SHL DUP2 MSTORE PUSH1 0x4 DUP2 ADD DUP4 SWAP1 MSTORE PUSH1 0x24 ADD PUSH2 0x4A7 JUMP JUMPDEST POP PUSH8 0xDE0B6B3A7640000 MUL SWAP1 JUMP JUMPDEST PUSH1 0x0 PUSH8 0xDE0B6B3A7640000 DUP3 LT ISZERO PUSH2 0x7F0 JUMPI PUSH1 0x40 MLOAD PUSH4 0x36214137 PUSH1 0xE2 SHL DUP2 MSTORE PUSH1 0x4 DUP2 ADD DUP4 SWAP1 MSTORE PUSH1 0x24 ADD PUSH2 0x4A7 JUMP JUMPDEST DUP2 PUSH1 0x1 DUP2 EQ PUSH2 0xF23 JUMPI PUSH1 0xA DUP2 EQ PUSH2 0xF34 JUMPI PUSH1 0x64 DUP2 EQ PUSH2 0xF45 JUMPI PUSH2 0x3E8 DUP2 EQ PUSH2 0xF56 JUMPI PUSH2 0x2710 DUP2 EQ PUSH2 0xF67 JUMPI PUSH3 0x186A0 DUP2 EQ PUSH2 0xF78 JUMPI PUSH3 0xF4240 DUP2 EQ PUSH2 0xF89 JUMPI PUSH3 0x989680 DUP2 EQ PUSH2 0xF9A JUMPI PUSH4 0x5F5E100 DUP2 EQ PUSH2 0xFAB JUMPI PUSH4 0x3B9ACA00 DUP2 EQ PUSH2 0xFBC JUMPI PUSH5 0x2540BE400 DUP2 EQ PUSH2 0xFCD JUMPI PUSH5 0x174876E800 DUP2 EQ PUSH2 0xFDE JUMPI PUSH5 0xE8D4A51000 DUP2 EQ PUSH2 0xFEF JUMPI PUSH6 0x9184E72A000 DUP2 EQ PUSH2 0x1000 JUMPI PUSH6 0x5AF3107A4000 DUP2 EQ PUSH2 0x1011 JUMPI PUSH7 0x38D7EA4C68000 DUP2 EQ PUSH2 0x1022 JUMPI PUSH7 0x2386F26FC10000 DUP2 EQ PUSH2 0x1033 JUMPI PUSH8 0x16345785D8A0000 DUP2 EQ PUSH2 0x1044 JUMPI PUSH8 0xDE0B6B3A7640000 DUP2 EQ PUSH2 0x1055 JUMPI PUSH8 0x8AC7230489E80000 DUP2 EQ PUSH2 0x105E JUMPI PUSH9 0x56BC75E2D63100000 DUP2 EQ PUSH2 0x106E JUMPI PUSH9 0x3635C9ADC5DEA00000 DUP2 EQ PUSH2 0x107E JUMPI PUSH10 0x21E19E0C9BAB2400000 DUP2 EQ PUSH2 0x108E JUMPI PUSH10 0x152D02C7E14AF6800000 DUP2 EQ PUSH2 0x109E JUMPI PUSH10 0xD3C21BCECCEDA1000000 DUP2 EQ PUSH2 0x10AE JUMPI PUSH11 0x84595161401484A000000 DUP2 EQ PUSH2 0x10BE JUMPI PUSH11 0x52B7D2DCC80CD2E4000000 DUP2 EQ PUSH2 0x10CE JUMPI PUSH12 0x33B2E3C9FD0803CE8000000 DUP2 EQ PUSH2 0x10DE JUMPI PUSH12 0x204FCE5E3E25026110000000 DUP2 EQ PUSH2 0x10EE JUMPI PUSH13 0x1431E0FAE6D7217CAA0000000 DUP2 EQ PUSH2 0x10FE JUMPI PUSH13 0xC9F2C9CD04674EDEA40000000 DUP2 EQ PUSH2 0x110E JUMPI PUSH13 0x7E37BE2022C0914B2680000000 DUP2 EQ PUSH2 0x111E JUMPI PUSH14 0x4EE2D6D415B85ACEF8100000000 DUP2 EQ PUSH2 0x112E JUMPI PUSH14 0x314DC6448D9338C15B0A00000000 DUP2 EQ PUSH2 0x113E JUMPI PUSH15 0x1ED09BEAD87C0378D8E6400000000 DUP2 EQ PUSH2 0x114E JUMPI PUSH15 0x13426172C74D822B878FE800000000 DUP2 EQ PUSH2 0x115E JUMPI PUSH15 0xC097CE7BC90715B34B9F1000000000 DUP2 EQ PUSH2 0x116E JUMPI PUSH16 0x785EE10D5DA46D900F436A000000000 DUP2 EQ PUSH2 0x117E JUMPI PUSH16 0x4B3B4CA85A86C47A098A224000000000 DUP2 EQ PUSH2 0x118F JUMPI PUSH17 0x2F050FE938943ACC45F65568000000000 DUP2 EQ PUSH2 0x11A0 JUMPI PUSH17 0x1D6329F1C35CA4BFABB9F5610000000000 DUP2 EQ PUSH2 0x11B1 JUMPI PUSH18 0x125DFA371A19E6F7CB54395CA0000000000 DUP2 EQ PUSH2 0x11C2 JUMPI PUSH18 0xB7ABC627050305ADF14A3D9E40000000000 DUP2 EQ PUSH2 0x11D3 JUMPI PUSH18 0x72CB5BD86321E38CB6CE6682E80000000000 DUP2 EQ PUSH2 0x11E4 JUMPI PUSH19 0x47BF19673DF52E37F2410011D100000000000 DUP2 EQ PUSH2 0x11F5 JUMPI PUSH19 0x2CD76FE086B93CE2F768A00B22A00000000000 DUP2 EQ PUSH2 0x1206 JUMPI PUSH20 0x1C06A5EC5433C60DDAA16406F5A400000000000 DUP2 EQ PUSH2 0x1217 JUMPI PUSH20 0x118427B3B4A05BC8A8A4DE845986800000000000 DUP2 EQ PUSH2 0x1228 JUMPI PUSH20 0xAF298D050E4395D69670B12B7F41000000000000 DUP2 EQ PUSH2 0x1239 JUMPI PUSH21 0x6D79F82328EA3DA61E066EBB2F88A000000000000 DUP2 EQ PUSH2 0x124A JUMPI PUSH21 0x446C3B15F9926687D2C40534FDB564000000000000 DUP2 EQ PUSH2 0x125B JUMPI PUSH22 0x2AC3A4EDBBFB8014E3BA83411E915E8000000000000 DUP2 EQ PUSH2 0x126C JUMPI PUSH22 0x1ABA4714957D300D0E549208B31ADB10000000000000 DUP2 EQ PUSH2 0x127D JUMPI PUSH23 0x10B46C6CDD6E3E0828F4DB456FF0C8EA0000000000000 DUP2 EQ PUSH2 0x128E JUMPI PUSH23 0xA70C3C40A64E6C51999090B65F67D9240000000000000 DUP2 EQ PUSH2 0x129F JUMPI PUSH23 0x6867A5A867F103B2FFFA5A71FBA0E7B680000000000000 DUP2 EQ PUSH2 0x12B0 JUMPI PUSH24 0x4140C78940F6A24FDFFC78873D4490D2100000000000000 DUP2 EQ PUSH2 0x12C1 JUMPI PUSH24 0x28C87CB5C89A2571EBFDCB54864ADA834A00000000000000 DUP2 EQ PUSH2 0x12D2 JUMPI PUSH25 0x197D4DF19D605767337E9F14D3EEC8920E400000000000000 DUP2 EQ PUSH2 0x12E3 JUMPI PUSH25 0xFEE50B7025C36A0802F236D04753D5B48E800000000000000 DUP2 EQ PUSH2 0x12F4 JUMPI PUSH25 0x9F4F2726179A224501D762422C946590D91000000000000000 DUP2 EQ PUSH2 0x1305 JUMPI PUSH26 0x63917877CEC0556B21269D695BDCBF7A87AA000000000000000 DUP2 EQ PUSH2 0x1316 JUMPI PUSH26 0x3E3AEB4AE1383562F4B82261D969F7AC94CA4000000000000000 DUP2 EQ PUSH2 0x1327 JUMPI PUSH27 0x26E4D30ECCC3215DD8F3157D27E23ACBDCFE68000000000000000 DUP2 EQ PUSH2 0x1338 JUMPI PUSH27 0x184F03E93FF9F4DAA797ED6E38ED64BF6A1F010000000000000000 DUP2 EQ PUSH2 0x1349 JUMPI PUSH27 0xF316271C7FC3908A8BEF464E3945EF7A25360A0000000000000000 DUP2 EQ PUSH2 0x135A JUMPI PUSH28 0x97EDD871CFDA3A5697758BF0E3CBB5AC5741C640000000000000000 DUP2 EQ PUSH2 0x136B JUMPI PUSH28 0x5EF4A74721E864761EA977768E5F518BB6891BE80000000000000000 DUP2 EQ PUSH2 0x137C JUMPI PUSH29 0x3B58E88C75313EC9D329EAAA18FB92F75215B17100000000000000000 DUP2 EQ PUSH2 0x138D JUMPI PUSH29 0x25179157C93EC73E23FA32AA4F9D3BDA934D8EE6A00000000000000000 DUP2 EQ PUSH2 0x139E JUMPI PUSH30 0x172EBAD6DDC73C86D67C5FAA71C245689C1079502400000000000000000 DUP2 EQ PUSH2 0x13AF JUMPI PUSH30 0xE7D34C64A9C85D4460DBBCA87196B61618A4BD216800000000000000000 DUP2 EQ PUSH2 0x13C0 JUMPI PUSH30 0x90E40FBEEA1D3A4ABC8955E946FE31CDCF66F634E1000000000000000000 DUP2 EQ PUSH2 0x13D1 JUMPI PUSH31 0x5A8E89D75252446EB5D5D5B1CC5EDF20A1A059E10CA000000000000000000 DUP2 EQ PUSH2 0x13E2 JUMPI PUSH31 0x3899162693736AC531A5A58F1FBB4B746504382CA7E4000000000000000000 DUP2 EQ PUSH2 0x13F3 JUMPI PUSH32 0x235FADD81C2822BB3F07877973D50F28BF22A31BE8EE8000000000000000000 DUP2 EQ PUSH2 0x1404 JUMPI PUSH32 0x161BCCA7119915B50764B4ABE86529797775A5F1719510000000000000000000 DUP2 EQ PUSH2 0x1415 JUMPI PUSH32 0xDD15FE86AFFAD91249EF0EB713F39EBEAA987B6E6FD2A0000000000000000000 DUP2 EQ PUSH2 0x1426 JUMPI PUSH1 0x0 NOT SWAP2 POP PUSH2 0x1433 JUMP JUMPDEST PUSH8 0xF9CCD8A1C507FFFF NOT SWAP2 POP PUSH2 0x1433 JUMP JUMPDEST PUSH8 0xEBEC21EE1DA3FFFF NOT SWAP2 POP PUSH2 0x1433 JUMP JUMPDEST PUSH8 0xDE0B6B3A763FFFFF NOT SWAP2 POP PUSH2 0x1433 JUMP JUMPDEST PUSH8 0xD02AB486CEDBFFFF NOT SWAP2 POP PUSH2 0x1433 JUMP JUMPDEST PUSH8 0xC249FDD32777FFFF NOT SWAP2 POP PUSH2 0x1433 JUMP JUMPDEST PUSH8 0xB469471F8013FFFF NOT SWAP2 POP PUSH2 0x1433 JUMP JUMPDEST PUSH8 0xA688906BD8AFFFFF NOT SWAP2 POP PUSH2 0x1433 JUMP JUMPDEST PUSH8 0x98A7D9B8314BFFFF NOT SWAP2 POP PUSH2 0x1433 JUMP JUMPDEST PUSH8 0x8AC7230489E7FFFF NOT SWAP2 POP PUSH2 0x1433 JUMP JUMPDEST PUSH8 0x7CE66C50E283FFFF NOT SWAP2 POP PUSH2 0x1433 JUMP JUMPDEST PUSH8 0x6F05B59D3B1FFFFF NOT SWAP2 POP PUSH2 0x1433 JUMP JUMPDEST PUSH8 0x6124FEE993BBFFFF NOT SWAP2 POP PUSH2 0x1433 JUMP JUMPDEST PUSH8 0x53444835EC57FFFF NOT SWAP2 POP PUSH2 0x1433 JUMP JUMPDEST PUSH8 0x4563918244F3FFFF NOT SWAP2 POP PUSH2 0x1433 JUMP JUMPDEST PUSH8 0x3782DACE9D8FFFFF NOT SWAP2 POP PUSH2 0x1433 JUMP JUMPDEST PUSH8 0x29A2241AF62BFFFF NOT SWAP2 POP PUSH2 0x1433 JUMP JUMPDEST PUSH8 0x1BC16D674EC7FFFF NOT SWAP2 POP PUSH2 0x1433 JUMP JUMPDEST PUSH8 0xDE0B6B3A763FFFF NOT SWAP2 POP PUSH2 0x1433 JUMP JUMPDEST PUSH1 0x0 SWAP2 POP PUSH2 0x1433 JUMP JUMPDEST PUSH8 0xDE0B6B3A7640000 SWAP2 POP PUSH2 0x1433 JUMP JUMPDEST PUSH8 0x1BC16D674EC80000 SWAP2 POP PUSH2 0x1433 JUMP JUMPDEST PUSH8 0x29A2241AF62C0000 SWAP2 POP PUSH2 0x1433 JUMP JUMPDEST PUSH8 0x3782DACE9D900000 SWAP2 POP PUSH2 0x1433 JUMP JUMPDEST PUSH8 0x4563918244F40000 SWAP2 POP PUSH2 0x1433 JUMP JUMPDEST PUSH8 0x53444835EC580000 SWAP2 POP PUSH2 0x1433 JUMP JUMPDEST PUSH8 0x6124FEE993BC0000 SWAP2 POP PUSH2 0x1433 JUMP JUMPDEST PUSH8 0x6F05B59D3B200000 SWAP2 POP PUSH2 0x1433 JUMP JUMPDEST PUSH8 0x7CE66C50E2840000 SWAP2 POP PUSH2 0x1433 JUMP JUMPDEST PUSH8 0x8AC7230489E80000 SWAP2 POP PUSH2 0x1433 JUMP JUMPDEST PUSH8 0x98A7D9B8314C0000 SWAP2 POP PUSH2 0x1433 JUMP JUMPDEST PUSH8 0xA688906BD8B00000 SWAP2 POP PUSH2 0x1433 JUMP JUMPDEST PUSH8 0xB469471F80140000 SWAP2 POP PUSH2 0x1433 JUMP JUMPDEST PUSH8 0xC249FDD327780000 SWAP2 POP PUSH2 0x1433 JUMP JUMPDEST PUSH8 0xD02AB486CEDC0000 SWAP2 POP PUSH2 0x1433 JUMP JUMPDEST PUSH8 0xDE0B6B3A76400000 SWAP2 POP PUSH2 0x1433 JUMP JUMPDEST PUSH8 0xEBEC21EE1DA40000 SWAP2 POP PUSH2 0x1433 JUMP JUMPDEST PUSH8 0xF9CCD8A1C5080000 SWAP2 POP PUSH2 0x1433 JUMP JUMPDEST PUSH9 0x107AD8F556C6C0000 SWAP2 POP PUSH2 0x1433 JUMP JUMPDEST PUSH9 0x1158E460913D00000 SWAP2 POP PUSH2 0x1433 JUMP JUMPDEST PUSH9 0x1236EFCBCBB340000 SWAP2 POP PUSH2 0x1433 JUMP JUMPDEST PUSH9 0x1314FB37062980000 SWAP2 POP PUSH2 0x1433 JUMP JUMPDEST PUSH9 0x13F306A2409FC0000 SWAP2 POP PUSH2 0x1433 JUMP JUMPDEST PUSH9 0x14D1120D7B1600000 SWAP2 POP PUSH2 0x1433 JUMP JUMPDEST PUSH9 0x15AF1D78B58C40000 SWAP2 POP PUSH2 0x1433 JUMP JUMPDEST PUSH9 0x168D28E3F00280000 SWAP2 POP PUSH2 0x1433 JUMP JUMPDEST PUSH9 0x176B344F2A78C0000 SWAP2 POP PUSH2 0x1433 JUMP JUMPDEST PUSH9 0x18493FBA64EF00000 SWAP2 POP PUSH2 0x1433 JUMP JUMPDEST PUSH9 0x19274B259F6540000 SWAP2 POP PUSH2 0x1433 JUMP JUMPDEST PUSH9 0x1A055690D9DB80000 SWAP2 POP PUSH2 0x1433 JUMP JUMPDEST PUSH9 0x1AE361FC1451C0000 SWAP2 POP PUSH2 0x1433 JUMP JUMPDEST PUSH9 0x1BC16D674EC800000 SWAP2 POP PUSH2 0x1433 JUMP JUMPDEST PUSH9 0x1C9F78D2893E40000 SWAP2 POP PUSH2 0x1433 JUMP JUMPDEST PUSH9 0x1D7D843DC3B480000 SWAP2 POP PUSH2 0x1433 JUMP JUMPDEST PUSH9 0x1E5B8FA8FE2AC0000 SWAP2 POP PUSH2 0x1433 JUMP JUMPDEST PUSH9 0x1F399B1438A100000 SWAP2 POP PUSH2 0x1433 JUMP JUMPDEST PUSH9 0x2017A67F731740000 SWAP2 POP PUSH2 0x1433 JUMP JUMPDEST PUSH9 0x20F5B1EAAD8D80000 SWAP2 POP PUSH2 0x1433 JUMP JUMPDEST PUSH9 0x21D3BD55E803C0000 SWAP2 POP PUSH2 0x1433 JUMP JUMPDEST PUSH9 0x22B1C8C1227A00000 SWAP2 POP PUSH2 0x1433 JUMP JUMPDEST PUSH9 0x238FD42C5CF040000 SWAP2 POP PUSH2 0x1433 JUMP JUMPDEST PUSH9 0x246DDF97976680000 SWAP2 POP PUSH2 0x1433 JUMP JUMPDEST PUSH9 0x254BEB02D1DCC0000 SWAP2 POP PUSH2 0x1433 JUMP JUMPDEST PUSH9 0x2629F66E0C5300000 SWAP2 POP PUSH2 0x1433 JUMP JUMPDEST PUSH9 0x270801D946C940000 SWAP2 POP PUSH2 0x1433 JUMP JUMPDEST PUSH9 0x27E60D44813F80000 SWAP2 POP PUSH2 0x1433 JUMP JUMPDEST PUSH9 0x28C418AFBBB5C0000 SWAP2 POP PUSH2 0x1433 JUMP JUMPDEST PUSH9 0x29A2241AF62C00000 SWAP2 POP PUSH2 0x1433 JUMP JUMPDEST PUSH9 0x2A802F8630A240000 SWAP2 POP PUSH2 0x1433 JUMP JUMPDEST PUSH9 0x2B5E3AF16B1880000 SWAP2 POP PUSH2 0x1433 JUMP JUMPDEST PUSH9 0x2C3C465CA58EC0000 SWAP2 POP PUSH2 0x1433 JUMP JUMPDEST PUSH9 0x2D1A51C7E00500000 SWAP2 POP PUSH2 0x1433 JUMP JUMPDEST PUSH9 0x2DF85D331A7B40000 SWAP2 POP PUSH2 0x1433 JUMP JUMPDEST PUSH9 0x2ED6689E54F180000 SWAP2 POP PUSH2 0x1433 JUMP JUMPDEST PUSH9 0x2FB474098F67C0000 SWAP2 POP PUSH2 0x1433 JUMP JUMPDEST PUSH9 0x30927F74C9DE00000 SWAP2 POP PUSH2 0x1433 JUMP JUMPDEST PUSH9 0x31708AE0045440000 SWAP2 POP PUSH2 0x1433 JUMP JUMPDEST PUSH9 0x324E964B3ECA80000 SWAP2 POP PUSH2 0x1433 JUMP JUMPDEST PUSH9 0x332CA1B67940C0000 SWAP2 POP JUMPDEST POP PUSH1 0x0 NOT DUP2 SUB PUSH2 0x1458 JUMPI PUSH8 0x2E19DC008126BF2B PUSH8 0xDE0B6B3A7640000 PUSH2 0x425 DUP5 PUSH2 0x4C7 JUMP JUMPDEST SWAP2 SWAP1 POP JUMP JUMPDEST PUSH1 0x0 PUSH1 0x1 PUSH1 0x80 SHL DUP3 LT PUSH2 0x147D JUMPI PUSH1 0x80 SWAP2 DUP3 SHR SWAP2 PUSH2 0x147A SWAP1 DUP3 PUSH2 0x1FA8 JUMP JUMPDEST SWAP1 POP JUMPDEST PUSH9 0x10000000000000000 DUP3 LT PUSH2 0x14A0 JUMPI PUSH1 0x40 SWAP2 DUP3 SHR SWAP2 PUSH2 0x149D SWAP1 DUP3 PUSH2 0x1FA8 JUMP JUMPDEST SWAP1 POP JUMPDEST PUSH5 0x100000000 DUP3 LT PUSH2 0x14BF JUMPI PUSH1 0x20 SWAP2 DUP3 SHR SWAP2 PUSH2 0x14BC SWAP1 DUP3 PUSH2 0x1FA8 JUMP JUMPDEST SWAP1 POP JUMPDEST PUSH3 0x10000 DUP3 LT PUSH2 0x14DC JUMPI PUSH1 0x10 SWAP2 DUP3 SHR SWAP2 PUSH2 0x14D9 SWAP1 DUP3 PUSH2 0x1FA8 JUMP JUMPDEST SWAP1 POP JUMPDEST PUSH2 0x100 DUP3 LT PUSH2 0x14F8 JUMPI PUSH1 0x8 SWAP2 DUP3 SHR SWAP2 PUSH2 0x14F5 SWAP1 DUP3 PUSH2 0x1FA8 JUMP JUMPDEST SWAP1 POP JUMPDEST PUSH1 0x10 DUP3 LT PUSH2 0x1513 JUMPI PUSH1 0x4 SWAP2 DUP3 SHR SWAP2 PUSH2 0x1510 SWAP1 DUP3 PUSH2 0x1FA8 JUMP JUMPDEST SWAP1 POP JUMPDEST PUSH1 0x4 DUP3 LT PUSH2 0x152E JUMPI PUSH1 0x2 SWAP2 DUP3 SHR SWAP2 PUSH2 0x152B SWAP1 DUP3 PUSH2 0x1FA8 JUMP JUMPDEST SWAP1 POP JUMPDEST PUSH1 0x2 DUP3 LT PUSH2 0x1458 JUMPI PUSH2 0x319 PUSH1 0x1 DUP3 PUSH2 0x1FA8 JUMP JUMPDEST PUSH1 0x0 DUP2 PUSH1 0x0 SUB PUSH2 0x1553 JUMPI POP PUSH1 0x0 SWAP2 SWAP1 POP JUMP JUMPDEST POP PUSH1 0x1 DUP2 PUSH1 0x1 PUSH1 0x80 SHL DUP2 LT PUSH2 0x156D JUMPI PUSH1 0x40 SWAP2 SWAP1 SWAP2 SHL SWAP1 PUSH1 0x80 SHR JUMPDEST PUSH9 0x10000000000000000 DUP2 LT PUSH2 0x1588 JUMPI PUSH1 0x20 SWAP2 SWAP1 SWAP2 SHL SWAP1 PUSH1 0x40 SHR JUMPDEST PUSH5 0x100000000 DUP2 LT PUSH2 0x159F JUMPI PUSH1 0x10 SWAP2 SWAP1 SWAP2 SHL SWAP1 PUSH1 0x20 SHR JUMPDEST PUSH3 0x10000 DUP2 LT PUSH2 0x15B4 JUMPI PUSH1 0x8 SWAP2 SWAP1 SWAP2 SHL SWAP1 PUSH1 0x10 SHR JUMPDEST PUSH2 0x100 DUP2 LT PUSH2 0x15C8 JUMPI PUSH1 0x4 SWAP2 SWAP1 SWAP2 SHL SWAP1 PUSH1 0x8 SHR JUMPDEST PUSH1 0x10 DUP2 LT PUSH2 0x15DB JUMPI PUSH1 0x2 SWAP2 SWAP1 SWAP2 SHL SWAP1 PUSH1 0x4 SHR JUMPDEST PUSH1 0x8 DUP2 LT PUSH2 0x15EB JUMPI PUSH1 0x1 DUP3 SWAP1 SHL SWAP2 POP JUMPDEST PUSH1 0x1 DUP3 DUP5 DUP2 PUSH2 0x15FC JUMPI PUSH2 0x15FC PUSH2 0x1F92 JUMP JUMPDEST DIV DUP4 ADD SWAP1 SHR SWAP2 POP PUSH1 0x1 DUP3 DUP5 DUP2 PUSH2 0x1614 JUMPI PUSH2 0x1614 PUSH2 0x1F92 JUMP JUMPDEST DIV DUP4 ADD SWAP1 SHR SWAP2 POP PUSH1 0x1 DUP3 DUP5 DUP2 PUSH2 0x162C JUMPI PUSH2 0x162C PUSH2 0x1F92 JUMP JUMPDEST DIV DUP4 ADD SWAP1 SHR SWAP2 POP PUSH1 0x1 DUP3 DUP5 DUP2 PUSH2 0x1644 JUMPI PUSH2 0x1644 PUSH2 0x1F92 JUMP JUMPDEST DIV DUP4 ADD SWAP1 SHR SWAP2 POP PUSH1 0x1 DUP3 DUP5 DUP2 PUSH2 0x165C JUMPI PUSH2 0x165C PUSH2 0x1F92 JUMP JUMPDEST DIV DUP4 ADD SWAP1 SHR SWAP2 POP PUSH1 0x1 DUP3 DUP5 DUP2 PUSH2 0x1674 JUMPI PUSH2 0x1674 PUSH2 0x1F92 JUMP JUMPDEST DIV DUP4 ADD SWAP1 SHR SWAP2 POP PUSH1 0x1 DUP3 DUP5 DUP2 PUSH2 0x168C JUMPI PUSH2 0x168C PUSH2 0x1F92 JUMP JUMPDEST DIV DUP4 ADD SWAP1 SHR SWAP2 POP PUSH1 0x0 DUP3 DUP5 DUP2 PUSH2 0x16A4 JUMPI PUSH2 0x16A4 PUSH2 0x1F92 JUMP JUMPDEST DIV SWAP1 POP DUP1 DUP4 LT ISZERO PUSH2 0x32B JUMPI DUP3 PUSH2 0x656 JUMP JUMPDEST PUSH1 0x0 DUP1 DUP1 PUSH1 0x0 NOT DUP5 DUP7 MULMOD DUP5 DUP7 MUL SWAP3 POP DUP3 DUP2 LT DUP4 DUP3 SUB SUB SWAP2 POP POP PUSH8 0xDE0B6B3A7640000 DUP2 LT PUSH2 0x16F9 JUMPI PUSH1 0x40 MLOAD PUSH4 0x698D9A01 PUSH1 0xE1 SHL DUP2 MSTORE PUSH1 0x4 DUP2 ADD DUP3 SWAP1 MSTORE PUSH1 0x24 ADD PUSH2 0x4A7 JUMP JUMPDEST PUSH1 0x0 DUP1 PUSH8 0xDE0B6B3A7640000 DUP7 DUP9 MULMOD SWAP2 POP PUSH8 0x6F05B59D3B1FFFF DUP3 GT SWAP1 POP DUP3 PUSH1 0x0 SUB PUSH2 0x1737 JUMPI DUP1 PUSH8 0xDE0B6B3A7640000 DUP6 DIV ADD SWAP5 POP POP POP POP POP PUSH2 0x319 JUMP JUMPDEST PUSH3 0x40000 DUP3 DUP6 SUB DIV SWAP4 SWAP1 SWAP2 GT SWAP1 SWAP2 SUB PUSH1 0x1 PUSH1 0xEE SHL MUL SWAP2 SWAP1 SWAP2 OR PUSH32 0xACCB18165BD6FE31AE1CF318DC5B51EEE0E1BA569B88CD74C1773B91FAC10669 MUL ADD SWAP1 POP SWAP3 SWAP2 POP POP JUMP JUMPDEST PUSH1 0x0 DUP1 DUP1 PUSH1 0x0 NOT DUP6 DUP8 MULMOD DUP6 DUP8 MUL SWAP3 POP DUP3 DUP2 LT DUP4 DUP3 SUB SUB SWAP2 POP POP DUP1 PUSH1 0x0 SUB PUSH2 0x17B5 JUMPI DUP4 DUP3 DUP2 PUSH2 0x17AB JUMPI PUSH2 0x17AB PUSH2 0x1F92 JUMP JUMPDEST DIV SWAP3 POP POP POP PUSH2 0x32B JUMP JUMPDEST DUP4 DUP2 LT PUSH2 0x17DF JUMPI PUSH1 0x40 MLOAD PUSH4 0x1DCF3063 PUSH1 0xE2 SHL DUP2 MSTORE PUSH1 0x4 DUP2 ADD DUP3 SWAP1 MSTORE PUSH1 0x24 DUP2 ADD DUP6 SWAP1 MSTORE PUSH1 0x44 ADD PUSH2 0x4A7 JUMP JUMPDEST PUSH1 0x0 DUP5 DUP7 DUP9 MULMOD PUSH1 0x2 PUSH1 0x3 PUSH1 0x1 DUP9 NOT DUP2 ADD DUP10 AND SWAP9 DUP10 SWAP1 DIV SWAP2 DUP3 MUL DUP4 XOR DUP1 DUP4 MUL DUP5 SUB MUL DUP1 DUP4 MUL DUP5 SUB MUL DUP1 DUP4 MUL DUP5 SUB MUL DUP1 DUP4 MUL DUP5 SUB MUL DUP1 DUP4 MUL DUP5 SUB MUL SWAP2 DUP3 MUL SWAP1 SWAP3 SUB MUL PUSH1 0x0 DUP9 SWAP1 SUB DUP9 SWAP1 DIV SWAP1 SWAP2 ADD DUP6 DUP4 GT SWAP1 SWAP5 SUB SWAP4 SWAP1 SWAP4 MUL SWAP4 SUB SWAP5 SWAP1 SWAP5 DIV SWAP2 SWAP1 SWAP2 OR MUL SWAP5 SWAP4 POP POP POP POP JUMP JUMPDEST PUSH24 0x800000000000000000000000000000000000000000000000 PUSH8 0x8000000000000000 DUP3 AND ISZERO PUSH2 0x187F JUMPI PUSH9 0x16A09E667F3BCC909 MUL PUSH1 0x40 SHR JUMPDEST PUSH8 0x4000000000000000 DUP3 AND ISZERO PUSH2 0x189E JUMPI PUSH9 0x1306FE0A31B7152DF MUL PUSH1 0x40 SHR JUMPDEST PUSH8 0x2000000000000000 DUP3 AND ISZERO PUSH2 0x18BD JUMPI PUSH9 0x1172B83C7D517ADCE MUL PUSH1 0x40 SHR JUMPDEST PUSH8 0x1000000000000000 DUP3 AND ISZERO PUSH2 0x18DC JUMPI PUSH9 0x10B5586CF9890F62A MUL PUSH1 0x40 SHR JUMPDEST PUSH8 0x800000000000000 DUP3 AND ISZERO PUSH2 0x18FB JUMPI PUSH9 0x1059B0D31585743AE MUL PUSH1 0x40 SHR JUMPDEST PUSH8 0x400000000000000 DUP3 AND ISZERO PUSH2 0x191A JUMPI PUSH9 0x102C9A3E778060EE7 MUL PUSH1 0x40 SHR JUMPDEST PUSH8 0x200000000000000 DUP3 AND ISZERO PUSH2 0x1939 JUMPI PUSH9 0x10163DA9FB33356D8 MUL PUSH1 0x40 SHR JUMPDEST PUSH8 0x100000000000000 DUP3 AND ISZERO PUSH2 0x1958 JUMPI PUSH9 0x100B1AFA5ABCBED61 MUL PUSH1 0x40 SHR JUMPDEST PUSH7 0x80000000000000 DUP3 AND ISZERO PUSH2 0x1976 JUMPI PUSH9 0x10058C86DA1C09EA2 MUL PUSH1 0x40 SHR JUMPDEST PUSH7 0x40000000000000 DUP3 AND ISZERO PUSH2 0x1994 JUMPI PUSH9 0x1002C605E2E8CEC50 MUL PUSH1 0x40 SHR JUMPDEST PUSH7 0x20000000000000 DUP3 AND ISZERO PUSH2 0x19B2 JUMPI PUSH9 0x100162F3904051FA1 MUL PUSH1 0x40 SHR JUMPDEST PUSH7 0x10000000000000 DUP3 AND ISZERO PUSH2 0x19D0 JUMPI PUSH9 0x1000B175EFFDC76BA MUL PUSH1 0x40 SHR JUMPDEST PUSH7 0x8000000000000 DUP3 AND ISZERO PUSH2 0x19EE JUMPI PUSH9 0x100058BA01FB9F96D MUL PUSH1 0x40 SHR JUMPDEST PUSH7 0x4000000000000 DUP3 AND ISZERO PUSH2 0x1A0C JUMPI PUSH9 0x10002C5CC37DA9492 MUL PUSH1 0x40 SHR JUMPDEST PUSH7 0x2000000000000 DUP3 AND ISZERO PUSH2 0x1A2A JUMPI PUSH9 0x1000162E525EE0547 MUL PUSH1 0x40 SHR JUMPDEST PUSH7 0x1000000000000 DUP3 AND ISZERO PUSH2 0x1A48 JUMPI PUSH9 0x10000B17255775C04 MUL PUSH1 0x40 SHR JUMPDEST PUSH6 0x800000000000 DUP3 AND ISZERO PUSH2 0x1A65 JUMPI PUSH9 0x1000058B91B5BC9AE MUL PUSH1 0x40 SHR JUMPDEST PUSH6 0x400000000000 DUP3 AND ISZERO PUSH2 0x1A82 JUMPI PUSH9 0x100002C5C89D5EC6D MUL PUSH1 0x40 SHR JUMPDEST PUSH6 0x200000000000 DUP3 AND ISZERO PUSH2 0x1A9F JUMPI PUSH9 0x10000162E43F4F831 MUL PUSH1 0x40 SHR JUMPDEST PUSH6 0x100000000000 DUP3 AND ISZERO PUSH2 0x1ABC JUMPI PUSH9 0x100000B1721BCFC9A MUL PUSH1 0x40 SHR JUMPDEST PUSH6 0x80000000000 DUP3 AND ISZERO PUSH2 0x1AD9 JUMPI PUSH9 0x10000058B90CF1E6E MUL PUSH1 0x40 SHR JUMPDEST PUSH6 0x40000000000 DUP3 AND ISZERO PUSH2 0x1AF6 JUMPI PUSH9 0x1000002C5C863B73F MUL PUSH1 0x40 SHR JUMPDEST PUSH6 0x20000000000 DUP3 AND ISZERO PUSH2 0x1B13 JUMPI PUSH9 0x100000162E430E5A2 MUL PUSH1 0x40 SHR JUMPDEST PUSH6 0x10000000000 DUP3 AND ISZERO PUSH2 0x1B30 JUMPI PUSH9 0x1000000B172183551 MUL PUSH1 0x40 SHR JUMPDEST PUSH5 0x8000000000 DUP3 AND ISZERO PUSH2 0x1B4C JUMPI PUSH9 0x100000058B90C0B49 MUL PUSH1 0x40 SHR JUMPDEST PUSH5 0x4000000000 DUP3 AND ISZERO PUSH2 0x1B68 JUMPI PUSH9 0x10000002C5C8601CC MUL PUSH1 0x40 SHR JUMPDEST PUSH5 0x2000000000 DUP3 AND ISZERO PUSH2 0x1B84 JUMPI PUSH9 0x1000000162E42FFF0 MUL PUSH1 0x40 SHR JUMPDEST PUSH5 0x1000000000 DUP3 AND ISZERO PUSH2 0x1BA0 JUMPI PUSH9 0x10000000B17217FBB MUL PUSH1 0x40 SHR JUMPDEST PUSH5 0x800000000 DUP3 AND ISZERO PUSH2 0x1BBC JUMPI PUSH9 0x1000000058B90BFCE MUL PUSH1 0x40 SHR JUMPDEST PUSH5 0x400000000 DUP3 AND ISZERO PUSH2 0x1BD8 JUMPI PUSH9 0x100000002C5C85FE3 MUL PUSH1 0x40 SHR JUMPDEST PUSH5 0x200000000 DUP3 AND ISZERO PUSH2 0x1BF4 JUMPI PUSH9 0x10000000162E42FF1 MUL PUSH1 0x40 SHR JUMPDEST PUSH5 0x100000000 DUP3 AND ISZERO PUSH2 0x1C10 JUMPI PUSH9 0x100000000B17217F8 MUL PUSH1 0x40 SHR JUMPDEST PUSH4 0x80000000 DUP3 AND ISZERO PUSH2 0x1C2B JUMPI PUSH9 0x10000000058B90BFC MUL PUSH1 0x40 SHR JUMPDEST PUSH4 0x40000000 DUP3 AND ISZERO PUSH2 0x1C46 JUMPI PUSH9 0x1000000002C5C85FE MUL PUSH1 0x40 SHR JUMPDEST PUSH4 0x20000000 DUP3 AND ISZERO PUSH2 0x1C61 JUMPI PUSH9 0x100000000162E42FF MUL PUSH1 0x40 SHR JUMPDEST PUSH4 0x10000000 DUP3 AND ISZERO PUSH2 0x1C7C JUMPI PUSH9 0x1000000000B17217F MUL PUSH1 0x40 SHR JUMPDEST PUSH4 0x8000000 DUP3 AND ISZERO PUSH2 0x1C97 JUMPI PUSH9 0x100000000058B90C0 MUL PUSH1 0x40 SHR JUMPDEST PUSH4 0x4000000 DUP3 AND ISZERO PUSH2 0x1CB2 JUMPI PUSH9 0x10000000002C5C860 MUL PUSH1 0x40 SHR JUMPDEST PUSH4 0x2000000 DUP3 AND ISZERO PUSH2 0x1CCD JUMPI PUSH9 0x1000000000162E430 MUL PUSH1 0x40 SHR JUMPDEST PUSH4 0x1000000 DUP3 AND ISZERO PUSH2 0x1CE8 JUMPI PUSH9 0x10000000000B17218 MUL PUSH1 0x40 SHR JUMPDEST PUSH3 0x800000 DUP3 AND ISZERO PUSH2 0x1D02 JUMPI PUSH9 0x1000000000058B90C MUL PUSH1 0x40 SHR JUMPDEST PUSH3 0x400000 DUP3 AND ISZERO PUSH2 0x1D1C JUMPI PUSH9 0x100000000002C5C86 MUL PUSH1 0x40 SHR JUMPDEST PUSH3 0x200000 DUP3 AND ISZERO PUSH2 0x1D36 JUMPI PUSH9 0x10000000000162E43 MUL PUSH1 0x40 SHR JUMPDEST PUSH3 0x100000 DUP3 AND ISZERO PUSH2 0x1D50 JUMPI PUSH9 0x100000000000B1721 MUL PUSH1 0x40 SHR JUMPDEST PUSH3 0x80000 DUP3 AND ISZERO PUSH2 0x1D6A JUMPI PUSH9 0x10000000000058B91 MUL PUSH1 0x40 SHR JUMPDEST PUSH3 0x40000 DUP3 AND ISZERO PUSH2 0x1D84 JUMPI PUSH9 0x1000000000002C5C8 MUL PUSH1 0x40 SHR JUMPDEST PUSH3 0x20000 DUP3 AND ISZERO PUSH2 0x1D9E JUMPI PUSH9 0x100000000000162E4 MUL PUSH1 0x40 SHR JUMPDEST PUSH3 0x10000 DUP3 AND ISZERO PUSH2 0x1DB8 JUMPI PUSH9 0x1000000000000B172 MUL PUSH1 0x40 SHR JUMPDEST PUSH2 0x8000 DUP3 AND ISZERO PUSH2 0x1DD1 JUMPI PUSH9 0x100000000000058B9 MUL PUSH1 0x40 SHR JUMPDEST PUSH2 0x4000 DUP3 AND ISZERO PUSH2 0x1DEA JUMPI PUSH9 0x10000000000002C5D MUL PUSH1 0x40 SHR JUMPDEST PUSH2 0x2000 DUP3 AND ISZERO PUSH2 0x1E03 JUMPI PUSH9 0x1000000000000162E MUL PUSH1 0x40 SHR JUMPDEST PUSH2 0x1000 DUP3 AND ISZERO PUSH2 0x1E1C JUMPI PUSH9 0x10000000000000B17 MUL PUSH1 0x40 SHR JUMPDEST PUSH2 0x800 DUP3 AND ISZERO PUSH2 0x1E35 JUMPI PUSH9 0x1000000000000058C MUL PUSH1 0x40 SHR JUMPDEST PUSH2 0x400 DUP3 AND ISZERO PUSH2 0x1E4E JUMPI PUSH9 0x100000000000002C6 MUL PUSH1 0x40 SHR JUMPDEST PUSH2 0x200 DUP3 AND ISZERO PUSH2 0x1E67 JUMPI PUSH9 0x10000000000000163 MUL PUSH1 0x40 SHR JUMPDEST PUSH2 0x100 DUP3 AND ISZERO PUSH2 0x1E80 JUMPI PUSH9 0x100000000000000B1 MUL PUSH1 0x40 SHR JUMPDEST PUSH1 0x80 DUP3 AND ISZERO PUSH2 0x1E98 JUMPI PUSH9 0x10000000000000059 MUL PUSH1 0x40 SHR JUMPDEST PUSH1 0x40 DUP3 AND ISZERO PUSH2 0x1EB0 JUMPI PUSH9 0x1000000000000002C MUL PUSH1 0x40 SHR JUMPDEST PUSH1 0x20 DUP3 AND ISZERO PUSH2 0x1EC8 JUMPI PUSH9 0x10000000000000016 MUL PUSH1 0x40 SHR JUMPDEST PUSH1 0x10 DUP3 AND ISZERO PUSH2 0x1EE0 JUMPI PUSH9 0x1000000000000000B MUL PUSH1 0x40 SHR JUMPDEST PUSH1 0x8 DUP3 AND ISZERO PUSH2 0x1EF8 JUMPI PUSH9 0x10000000000000006 MUL PUSH1 0x40 SHR JUMPDEST PUSH1 0x4 DUP3 AND ISZERO PUSH2 0x1F10 JUMPI PUSH9 0x10000000000000003 MUL PUSH1 0x40 SHR JUMPDEST PUSH1 0x2 DUP3 AND ISZERO PUSH2 0x1F28 JUMPI PUSH9 0x10000000000000001 MUL PUSH1 0x40 SHR JUMPDEST PUSH1 0x1 DUP3 AND ISZERO PUSH2 0x1F40 JUMPI PUSH9 0x10000000000000001 MUL PUSH1 0x40 SHR JUMPDEST PUSH8 0xDE0B6B3A7640000 MUL PUSH1 0x40 SWAP2 SWAP1 SWAP2 SHR PUSH1 0xBF SUB SHR SWAP1 JUMP JUMPDEST PUSH1 0x0 PUSH1 0x20 DUP3 DUP5 SUB SLT ISZERO PUSH2 0x1F69 JUMPI PUSH1 0x0 DUP1 REVERT JUMPDEST POP CALLDATALOAD SWAP2 SWAP1 POP JUMP JUMPDEST PUSH1 0x0 DUP1 PUSH1 0x40 DUP4 DUP6 SUB SLT ISZERO PUSH2 0x1F83 JUMPI PUSH1 0x0 DUP1 REVERT JUMPDEST POP POP DUP1 CALLDATALOAD SWAP3 PUSH1 0x20 SWAP1 SWAP2 ADD CALLDATALOAD SWAP2 POP JUMP JUMPDEST PUSH4 0x4E487B71 PUSH1 0xE0 SHL PUSH1 0x0 MSTORE PUSH1 0x12 PUSH1 0x4 MSTORE PUSH1 0x24 PUSH1 0x0 REVERT JUMPDEST PUSH1 0x0 DUP3 NOT DUP3 GT ISZERO PUSH2 0x1FC9 JUMPI PUSH4 0x4E487B71 PUSH1 0xE0 SHL PUSH1 0x0 MSTORE PUSH1 0x11 PUSH1 0x4 MSTORE PUSH1 0x24 PUSH1 0x0 REVERT JUMPDEST POP ADD SWAP1 JUMP INVALID LOG1 PUSH5 0x736F6C6343 STOP ADDMOD 0xD STOP EXP "
        },
        "gasEstimates": {
          "creation": {
            "codeDepositCost": "1631000",
            "executionCost": "1708",
            "totalCost": "1632708"
          },
          "external": {
            "avg(uint256,uint256)": "434",
            "ceil(uint256)": "448",
            "div(uint256,uint256)": "infinite",
            "e()": "268",
            "exp(uint256)": "infinite",
            "exp2(uint256)": "3056",
            "floor(uint256)": "412",
            "frac(uint256)": "369",
            "fromUint(uint256)": "437",
            "gm(uint256,uint256)": "infinite",
            "inv(uint256)": "436",
            "ln(uint256)": "infinite",
            "log10(uint256)": "infinite",
            "log2(uint256)": "infinite",
            "mul(uint256,uint256)": "infinite",
            "pi()": "249",
            "pow(uint256,uint256)": "infinite",
            "powu(uint256,uint256)": "infinite",
            "scale()": "246",
            "sqrt(uint256)": "infinite",
            "toUint(uint256)": "410"
          }
        },
        "methodIdentifiers": {
          "avg(uint256,uint256)": "db140068",
          "ceil(uint256)": "40f0a21f",
          "div(uint256,uint256)": "a391c15b",
          "e()": "ffae15ba",
          "exp(uint256)": "b581fbe3",
          "exp2(uint256)": "a75826ae",
          "floor(uint256)": "504f5e56",
          "frac(uint256)": "728e8c7f",
          "fromUint(uint256)": "e3814b19",
          "gm(uint256,uint256)": "7d2b1efb",
          "inv(uint256)": "7a142f2e",
          "ln(uint256)": "24d4e90a",
          "log10(uint256)": "ebdae5f9",
          "log2(uint256)": "5456bf13",
          "mul(uint256,uint256)": "c8a4ac9c",
          "pi()": "2dd9868d",
          "pow(uint256,uint256)": "2e4c697f",
          "powu(uint256,uint256)": "99a04f2f",
          "scale()": "f51e181a",
          "sqrt(uint256)": "677342ce",
          "toUint(uint256)": "57f5c63c"
        }
      },
      "storageLayout": {
        "storage": [],
        "types": null
      },
      "userdoc": {
        "errors": {
          "PRBMathUD60x18__CeilOverflow(uint256)": [
            {
              "notice": "Emitted when ceiling a number overflows UD60x18."
            }
          ],
          "PRBMathUD60x18__Exp2InputTooBig(uint256)": [
            {
              "notice": "Emitted when the input is greater than 192."
            }
          ],
          "PRBMathUD60x18__ExpInputTooBig(uint256)": [
            {
              "notice": "Emitted when the input is greater than 133.084258667509499441."
            }
          ],
          "PRBMathUD60x18__FromUintOverflow(uint256)": [
            {
              "notice": "Emitted when converting a basic integer to the fixed-point format format overflows UD60x18."
            }
          ],
          "PRBMathUD60x18__GmOverflow(uint256,uint256)": [
            {
              "notice": "Emitted when multiplying the inputs overflows UD60x18."
            }
          ],
          "PRBMathUD60x18__LogInputTooSmall(uint256)": [
            {
              "notice": "Emitted when the input is less than 1."
            }
          ],
          "PRBMathUD60x18__SqrtOverflow(uint256)": [
            {
              "notice": "Emitted when the calculating the square root overflows UD60x18."
            }
          ],
          "PRBMath__MulDivFixedPointOverflow(uint256)": [
            {
              "notice": "Emitted when the result overflows uint256."
            }
          ],
          "PRBMath__MulDivOverflow(uint256,uint256)": [
            {
              "notice": "Emitted when the result overflows uint256."
            }
          ]
        },
        "kind": "user",
        "methods": {},
        "version": 1
      }
    }
  }
}